{
  "contractName": "DonarContract",
  "abi": [
    {
      "inputs": [
        {
          "internalType": "string",
          "name": "_firstname",
          "type": "string"
        },
        {
          "internalType": "string",
          "name": "_lastname",
          "type": "string"
        },
        {
          "internalType": "uint256",
          "name": "_age",
          "type": "uint256"
        },
        {
          "internalType": "string",
          "name": "_gender",
          "type": "string"
        },
        {
          "internalType": "string",
          "name": "_medical_id",
          "type": "string"
        },
        {
          "internalType": "string",
          "name": "_blood_type",
          "type": "string"
        },
        {
          "internalType": "string",
          "name": "_organ",
          "type": "string"
        },
        {
          "internalType": "string",
          "name": "_location",
          "type": "string"
        }
      ],
      "name": "addDonars",
      "outputs": [],
      "stateMutability": "nonpayable",
      "type": "function"
    },
    {
      "inputs": [
        {
          "internalType": "string",
          "name": "_firstname",
          "type": "string"
        },
        {
          "internalType": "string",
          "name": "_lastname",
          "type": "string"
        },
        {
          "internalType": "uint256",
          "name": "_age",
          "type": "uint256"
        },
        {
          "internalType": "string",
          "name": "_gender",
          "type": "string"
        },
        {
          "internalType": "string",
          "name": "_medical_id",
          "type": "string"
        },
        {
          "internalType": "string",
          "name": "_blood_type",
          "type": "string"
        },
        {
          "internalType": "string",
          "name": "_organ",
          "type": "string"
        },
        {
          "internalType": "string",
          "name": "_location",
          "type": "string"
        }
      ],
      "name": "addPatients",
      "outputs": [],
      "stateMutability": "nonpayable",
      "type": "function"
    },
    {
      "inputs": [
        {
          "internalType": "string",
          "name": "_medical_id",
          "type": "string"
        }
      ],
      "name": "getDonar",
      "outputs": [
        {
          "internalType": "string",
          "name": "",
          "type": "string"
        },
        {
          "internalType": "string",
          "name": "",
          "type": "string"
        },
        {
          "internalType": "uint256",
          "name": "",
          "type": "uint256"
        },
        {
          "internalType": "string",
          "name": "",
          "type": "string"
        },
        {
          "internalType": "string",
          "name": "",
          "type": "string"
        },
        {
          "internalType": "string",
          "name": "",
          "type": "string"
        },
        {
          "internalType": "string",
          "name": "",
          "type": "string"
        }
      ],
      "stateMutability": "view",
      "type": "function",
      "constant": true
    },
    {
      "inputs": [
        {
          "internalType": "string",
          "name": "_medical_id",
          "type": "string"
        }
      ],
      "name": "getPatient",
      "outputs": [
        {
          "internalType": "string",
          "name": "",
          "type": "string"
        },
        {
          "internalType": "string",
          "name": "",
          "type": "string"
        },
        {
          "internalType": "uint256",
          "name": "",
          "type": "uint256"
        },
        {
          "internalType": "string",
          "name": "",
          "type": "string"
        },
        {
          "internalType": "string",
          "name": "",
          "type": "string"
        },
        {
          "internalType": "string",
          "name": "",
          "type": "string"
        },
        {
          "internalType": "string",
          "name": "",
          "type": "string"
        }
      ],
      "stateMutability": "view",
      "type": "function",
      "constant": true
    },
    {
      "inputs": [
        {
          "internalType": "string",
          "name": "_medical_id",
          "type": "string"
        }
      ],
      "name": "validateDonar",
      "outputs": [
        {
          "internalType": "bool",
          "name": "",
          "type": "bool"
        }
      ],
      "stateMutability": "view",
      "type": "function",
      "constant": true
    },
    {
      "inputs": [
        {
          "internalType": "string",
          "name": "_medical_id",
          "type": "string"
        }
      ],
      "name": "validatePatient",
      "outputs": [
        {
          "internalType": "bool",
          "name": "",
          "type": "bool"
        }
      ],
      "stateMutability": "view",
      "type": "function",
      "constant": true
    },
    {
      "inputs": [],
      "name": "getAllDonarIDs",
      "outputs": [
        {
          "internalType": "string[]",
          "name": "",
          "type": "string[]"
        }
      ],
      "stateMutability": "view",
      "type": "function",
      "constant": true
    },
    {
      "inputs": [],
      "name": "getAllPatientIDs",
      "outputs": [
        {
          "internalType": "string[]",
          "name": "",
          "type": "string[]"
        }
      ],
      "stateMutability": "view",
      "type": "function",
      "constant": true
    },
    {
      "inputs": [],
      "name": "getCountOfDonars",
      "outputs": [
        {
          "internalType": "uint256",
          "name": "",
          "type": "uint256"
        }
      ],
      "stateMutability": "view",
      "type": "function",
      "constant": true
    },
    {
      "inputs": [],
      "name": "getCountOfPatients",
      "outputs": [
        {
          "internalType": "uint256",
          "name": "",
          "type": "uint256"
        }
      ],
      "stateMutability": "view",
      "type": "function",
      "constant": true
    }
  ],
  "bytecode": "0x608060405234801561001057600080fd5b50612261806100206000396000f3fe608060405234801561001057600080fd5b506004361061009e5760003560e01c8063c925b94611610066578063c925b9461461014f578063cdbe30dd1461016b578063d0544a8d1461019b578063e79a7a2e146101b9578063ef1215c3146101ef5761009e565b8063037f6aa5146100a35780632778739d146100c1578063463636d6146100dd578063b129fa0614610113578063b388561014610131575b600080fd5b6100ab61021f565b6040516100b8919061175d565b60405180910390f35b6100db60048036038101906100d691906118fe565b61022c565b005b6100f760048036038101906100f29190611a78565b6106aa565b60405161010a9796959493929190611b49565b60405180910390f35b61011b610afe565b6040516101289190611cee565b60405180910390f35b610139610bd7565b604051610146919061175d565b60405180910390f35b610169600480360381019061016491906118fe565b610be4565b005b61018560048036038101906101809190611a78565b611062565b6040516101929190611d2b565b60405180910390f35b6101a36110eb565b6040516101b09190611cee565b60405180910390f35b6101d360048036038101906101ce9190611a78565b6111c4565b6040516101e69796959493929190611b49565b60405180910390f35b61020960048036038101906102049190611a78565b611618565b6040516102169190611d2b565b60405180910390f35b6000600280549050905090565b6000885111610270576040517f08c379a000000000000000000000000000000000000000000000000000000000815260040161026790611d92565b60405180910390fd5b60008751116102b4576040517f08c379a00000000000000000000000000000000000000000000000000000000081526004016102ab90611e24565b60405180910390fd5b600086116102f7576040517f08c379a00000000000000000000000000000000000000000000000000000000081526004016102ee90611e90565b60405180910390fd5b600085511161033b576040517f08c379a000000000000000000000000000000000000000000000000000000000815260040161033290611efc565b60405180910390fd5b600084511161037f576040517f08c379a000000000000000000000000000000000000000000000000000000000815260040161037690611f68565b60405180910390fd5b60008351116103c3576040517f08c379a00000000000000000000000000000000000000000000000000000000081526004016103ba90611fd4565b60405180910390fd5b6000825111610407576040517f08c379a00000000000000000000000000000000000000000000000000000000081526004016103fe90612040565b60405180910390fd5b600081511161044b576040517f08c379a0000000000000000000000000000000000000000000000000000000008152600401610442906120ac565b60405180910390fd5b8360405160200161045c9190612108565b604051602081830303815290604052805190602001206000856040516104829190612108565b90815260200160405180910390206004016040516020016104a39190612214565b6040516020818303038152906040528051906020012014156104c457600080fd5b876001856040516104d59190612108565b908152602001604051809103902060000190805190602001906104f99291906116a1565b508660018560405161050b9190612108565b9081526020016040518091039020600101908051906020019061052f9291906116a1565b50856001856040516105419190612108565b908152602001604051809103902060020181905550846001856040516105679190612108565b9081526020016040518091039020600301908051906020019061058b9291906116a1565b508360018560405161059d9190612108565b908152602001604051809103902060040190805190602001906105c19291906116a1565b50826001856040516105d39190612108565b908152602001604051809103902060050190805190602001906105f79291906116a1565b50816001856040516106099190612108565b9081526020016040518091039020600601908051906020019061062d9291906116a1565b508060018560405161063f9190612108565b908152602001604051809103902060070190805190602001906106639291906116a1565b5060038490806001815401808255809150506001900390600052602060002001600090919091909150908051906020019061069f9291906116a1565b505050505050505050565b60608060006060806060806000886040516106c59190612108565b90815260200160405180910390206000016000896040516106e69190612108565b908152602001604051809103902060010160008a6040516107079190612108565b90815260200160405180910390206002015460008b6040516107299190612108565b908152602001604051809103902060030160008c60405161074a9190612108565b908152602001604051809103902060050160008d60405161076b9190612108565b908152602001604051809103902060060160008e60405161078c9190612108565b90815260200160405180910390206007018680546107a99061214e565b80601f01602080910402602001604051908101604052809291908181526020018280546107d59061214e565b80156108225780601f106107f757610100808354040283529160200191610822565b820191906000526020600020905b81548152906001019060200180831161080557829003601f168201915b505050505096508580546108359061214e565b80601f01602080910402602001604051908101604052809291908181526020018280546108619061214e565b80156108ae5780601f10610883576101008083540402835291602001916108ae565b820191906000526020600020905b81548152906001019060200180831161089157829003601f168201915b505050505095508380546108c19061214e565b80601f01602080910402602001604051908101604052809291908181526020018280546108ed9061214e565b801561093a5780601f1061090f5761010080835404028352916020019161093a565b820191906000526020600020905b81548152906001019060200180831161091d57829003601f168201915b5050505050935082805461094d9061214e565b80601f01602080910402602001604051908101604052809291908181526020018280546109799061214e565b80156109c65780601f1061099b576101008083540402835291602001916109c6565b820191906000526020600020905b8154815290600101906020018083116109a957829003601f168201915b505050505092508180546109d99061214e565b80601f0160208091040260200160405190810160405280929190818152602001828054610a059061214e565b8015610a525780601f10610a2757610100808354040283529160200191610a52565b820191906000526020600020905b815481529060010190602001808311610a3557829003601f168201915b50505050509150808054610a659061214e565b80601f0160208091040260200160405190810160405280929190818152602001828054610a919061214e565b8015610ade5780601f10610ab357610100808354040283529160200191610ade565b820191906000526020600020905b815481529060010190602001808311610ac157829003601f168201915b505050505090509650965096509650965096509650919395979092949650565b60606002805480602002602001604051908101604052809291908181526020016000905b82821015610bce578382906000526020600020018054610b419061214e565b80601f0160208091040260200160405190810160405280929190818152602001828054610b6d9061214e565b8015610bba5780601f10610b8f57610100808354040283529160200191610bba565b820191906000526020600020905b815481529060010190602001808311610b9d57829003601f168201915b505050505081526020019060010190610b22565b50505050905090565b6000600380549050905090565b6000885111610c28576040517f08c379a0000000000000000000000000000000000000000000000000000000008152600401610c1f90611d92565b60405180910390fd5b6000875111610c6c576040517f08c379a0000000000000000000000000000000000000000000000000000000008152600401610c6390611e24565b60405180910390fd5b60008611610caf576040517f08c379a0000000000000000000000000000000000000000000000000000000008152600401610ca690611e90565b60405180910390fd5b6000855111610cf3576040517f08c379a0000000000000000000000000000000000000000000000000000000008152600401610cea90611efc565b60405180910390fd5b6000845111610d37576040517f08c379a0000000000000000000000000000000000000000000000000000000008152600401610d2e90611f68565b60405180910390fd5b6000835111610d7b576040517f08c379a0000000000000000000000000000000000000000000000000000000008152600401610d7290611fd4565b60405180910390fd5b6000825111610dbf576040517f08c379a0000000000000000000000000000000000000000000000000000000008152600401610db690612040565b60405180910390fd5b6000815111610e03576040517f08c379a0000000000000000000000000000000000000000000000000000000008152600401610dfa906120ac565b60405180910390fd5b83604051602001610e149190612108565b60405160208183030381529060405280519060200120600085604051610e3a9190612108565b9081526020016040518091039020600401604051602001610e5b9190612214565b604051602081830303815290604052805190602001201415610e7c57600080fd5b87600085604051610e8d9190612108565b90815260200160405180910390206000019080519060200190610eb19291906116a1565b5086600085604051610ec39190612108565b90815260200160405180910390206001019080519060200190610ee79291906116a1565b5085600085604051610ef99190612108565b90815260200160405180910390206002018190555084600085604051610f1f9190612108565b90815260200160405180910390206003019080519060200190610f439291906116a1565b5083600085604051610f559190612108565b90815260200160405180910390206004019080519060200190610f799291906116a1565b5082600085604051610f8b9190612108565b90815260200160405180910390206005019080519060200190610faf9291906116a1565b5081600085604051610fc19190612108565b90815260200160405180910390206006019080519060200190610fe59291906116a1565b5080600085604051610ff79190612108565b9081526020016040518091039020600701908051906020019061101b9291906116a1565b506002849080600181540180825580915050600190039060005260206000200160009091909190915090805190602001906110579291906116a1565b505050505050505050565b6000816040516020016110759190612108565b6040516020818303038152906040528051906020012060008360405161109b9190612108565b90815260200160405180910390206004016040516020016110bc9190612214565b6040516020818303038152906040528051906020012014156110e157600190506110e6565b600090505b919050565b60606003805480602002602001604051908101604052809291908181526020016000905b828210156111bb57838290600052602060002001805461112e9061214e565b80601f016020809104026020016040519081016040528092919081815260200182805461115a9061214e565b80156111a75780601f1061117c576101008083540402835291602001916111a7565b820191906000526020600020905b81548152906001019060200180831161118a57829003601f168201915b50505050508152602001906001019061110f565b50505050905090565b60608060006060806060806001886040516111df9190612108565b90815260200160405180910390206000016001896040516112009190612108565b908152602001604051809103902060010160018a6040516112219190612108565b90815260200160405180910390206002015460018b6040516112439190612108565b908152602001604051809103902060030160018c6040516112649190612108565b908152602001604051809103902060050160018d6040516112859190612108565b908152602001604051809103902060060160018e6040516112a69190612108565b90815260200160405180910390206007018680546112c39061214e565b80601f01602080910402602001604051908101604052809291908181526020018280546112ef9061214e565b801561133c5780601f106113115761010080835404028352916020019161133c565b820191906000526020600020905b81548152906001019060200180831161131f57829003601f168201915b5050505050965085805461134f9061214e565b80601f016020809104026020016040519081016040528092919081815260200182805461137b9061214e565b80156113c85780601f1061139d576101008083540402835291602001916113c8565b820191906000526020600020905b8154815290600101906020018083116113ab57829003601f168201915b505050505095508380546113db9061214e565b80601f01602080910402602001604051908101604052809291908181526020018280546114079061214e565b80156114545780601f1061142957610100808354040283529160200191611454565b820191906000526020600020905b81548152906001019060200180831161143757829003601f168201915b505050505093508280546114679061214e565b80601f01602080910402602001604051908101604052809291908181526020018280546114939061214e565b80156114e05780601f106114b5576101008083540402835291602001916114e0565b820191906000526020600020905b8154815290600101906020018083116114c357829003601f168201915b505050505092508180546114f39061214e565b80601f016020809104026020016040519081016040528092919081815260200182805461151f9061214e565b801561156c5780601f106115415761010080835404028352916020019161156c565b820191906000526020600020905b81548152906001019060200180831161154f57829003601f168201915b5050505050915080805461157f9061214e565b80601f01602080910402602001604051908101604052809291908181526020018280546115ab9061214e565b80156115f85780601f106115cd576101008083540402835291602001916115f8565b820191906000526020600020905b8154815290600101906020018083116115db57829003601f168201915b505050505090509650965096509650965096509650919395979092949650565b60008160405160200161162b9190612108565b604051602081830303815290604052805190602001206001836040516116519190612108565b90815260200160405180910390206004016040516020016116729190612214565b604051602081830303815290604052805190602001201415611697576001905061169c565b600090505b919050565b8280546116ad9061214e565b90600052602060002090601f0160209004810192826116cf5760008555611716565b82601f106116e857805160ff1916838001178555611716565b82800160010185558215611716579182015b828111156117155782518255916020019190600101906116fa565b5b5090506117239190611727565b5090565b5b80821115611740576000816000905550600101611728565b5090565b6000819050919050565b61175781611744565b82525050565b6000602082019050611772600083018461174e565b92915050565b6000604051905090565b600080fd5b600080fd5b600080fd5b600080fd5b6000601f19601f8301169050919050565b7f4e487b7100000000000000000000000000000000000000000000000000000000600052604160045260246000fd5b6117df82611796565b810181811067ffffffffffffffff821117156117fe576117fd6117a7565b5b80604052505050565b6000611811611778565b905061181d82826117d6565b919050565b600067ffffffffffffffff82111561183d5761183c6117a7565b5b61184682611796565b9050602081019050919050565b82818337600083830152505050565b600061187561187084611822565b611807565b90508281526020810184848401111561189157611890611791565b5b61189c848285611853565b509392505050565b600082601f8301126118b9576118b861178c565b5b81356118c9848260208601611862565b91505092915050565b6118db81611744565b81146118e657600080fd5b50565b6000813590506118f8816118d2565b92915050565b600080600080600080600080610100898b03121561191f5761191e611782565b5b600089013567ffffffffffffffff81111561193d5761193c611787565b5b6119498b828c016118a4565b985050602089013567ffffffffffffffff81111561196a57611969611787565b5b6119768b828c016118a4565b97505060406119878b828c016118e9565b965050606089013567ffffffffffffffff8111156119a8576119a7611787565b5b6119b48b828c016118a4565b955050608089013567ffffffffffffffff8111156119d5576119d4611787565b5b6119e18b828c016118a4565b94505060a089013567ffffffffffffffff811115611a0257611a01611787565b5b611a0e8b828c016118a4565b93505060c089013567ffffffffffffffff811115611a2f57611a2e611787565b5b611a3b8b828c016118a4565b92505060e089013567ffffffffffffffff811115611a5c57611a5b611787565b5b611a688b828c016118a4565b9150509295985092959890939650565b600060208284031215611a8e57611a8d611782565b5b600082013567ffffffffffffffff811115611aac57611aab611787565b5b611ab8848285016118a4565b91505092915050565b600081519050919050565b600082825260208201905092915050565b60005b83811015611afb578082015181840152602081019050611ae0565b83811115611b0a576000848401525b50505050565b6000611b1b82611ac1565b611b258185611acc565b9350611b35818560208601611add565b611b3e81611796565b840191505092915050565b600060e0820190508181036000830152611b63818a611b10565b90508181036020830152611b778189611b10565b9050611b86604083018861174e565b8181036060830152611b988187611b10565b90508181036080830152611bac8186611b10565b905081810360a0830152611bc08185611b10565b905081810360c0830152611bd48184611b10565b905098975050505050505050565b600081519050919050565b600082825260208201905092915050565b6000819050602082019050919050565b600082825260208201905092915050565b6000611c2a82611ac1565b611c348185611c0e565b9350611c44818560208601611add565b611c4d81611796565b840191505092915050565b6000611c648383611c1f565b905092915050565b6000602082019050919050565b6000611c8482611be2565b611c8e8185611bed565b935083602082028501611ca085611bfe565b8060005b85811015611cdc5784840389528151611cbd8582611c58565b9450611cc883611c6c565b925060208a01995050600181019050611ca4565b50829750879550505050505092915050565b60006020820190508181036000830152611d088184611c79565b905092915050565b60008115159050919050565b611d2581611d10565b82525050565b6000602082019050611d406000830184611d1c565b92915050565b7f4e6f206461746120666f756e642e20456e746572206669727374206e616d652e600082015250565b6000611d7c602083611acc565b9150611d8782611d46565b602082019050919050565b60006020820190508181036000830152611dab81611d6f565b9050919050565b7f4e6f206461746120666f756e642e20456e746572207365636f6e64206e616d6560008201527f2e00000000000000000000000000000000000000000000000000000000000000602082015250565b6000611e0e602183611acc565b9150611e1982611db2565b604082019050919050565b60006020820190508181036000830152611e3d81611e01565b9050919050565b7f4e6f206461746120666f756e642e20456e746572206167652e00000000000000600082015250565b6000611e7a601983611acc565b9150611e8582611e44565b602082019050919050565b60006020820190508181036000830152611ea981611e6d565b9050919050565b7f4e6f206461746120666f756e642e20456e7465722067656e6465722e00000000600082015250565b6000611ee6601c83611acc565b9150611ef182611eb0565b602082019050919050565b60006020820190508181036000830152611f1581611ed9565b9050919050565b7f4e6f206461746120666f756e642e20456e746572206d65646963616c2049442e600082015250565b6000611f52602083611acc565b9150611f5d82611f1c565b602082019050919050565b60006020820190508181036000830152611f8181611f45565b9050919050565b7f4e6f206461746120666f756e642e20456e74657220626c6f6f642d747970652e600082015250565b6000611fbe602083611acc565b9150611fc982611f88565b602082019050919050565b60006020820190508181036000830152611fed81611fb1565b9050919050565b7f4e6f206461746120666f756e642e20456e746572206f7267616e2e0000000000600082015250565b600061202a601b83611acc565b915061203582611ff4565b602082019050919050565b600060208201905081810360008301526120598161201d565b9050919050565b7f4e6f206461746120666f756e642e20456e746572206c6f636174696f6e2e0000600082015250565b6000612096601e83611acc565b91506120a182612060565b602082019050919050565b600060208201905081810360008301526120c581612089565b9050919050565b600081905092915050565b60006120e282611ac1565b6120ec81856120cc565b93506120fc818560208601611add565b80840191505092915050565b600061211482846120d7565b915081905092915050565b7f4e487b7100000000000000000000000000000000000000000000000000000000600052602260045260246000fd5b6000600282049050600182168061216657607f821691505b6020821081141561217a5761217961211f565b5b50919050565b60008190508160005260206000209050919050565b600081546121a28161214e565b6121ac81866120cc565b945060018216600081146121c757600181146121d85761220b565b60ff1983168652818601935061220b565b6121e185612180565b60005b83811015612203578154818901526001820191506020810190506121e4565b838801955050505b50505092915050565b60006122208284612195565b91508190509291505056fea26469706673582212204cdc2feb9c4e7d5211c16016208c59dfe088cc0d60a75877c2a2ad384882727864736f6c634300080a0033",
  "immutableReferences": {},
  "source": "// SPDX-License-Identifier: MIT\npragma solidity ^0.8.10;\n\ncontract DonarContract {\n\n    struct donar\n    {\n\n        string firstname;\n        string lastname;\n        uint age;\n        string gender;\n        string medical_id;\n        string blood_type;\n        string organ;\n        string location;\n\n    }\n\n    struct patient\n    {\n\n        string firstname;\n        string lastname;\n        uint age;\n        string gender;\n        string medical_id;\n        string blood_type;\n        string organ;\n        string location;\n\n    }\n\n    mapping ( string =>donar ) donarMap;\n    mapping ( string =>patient) patientMap;\n\n    string[] DonarsArray;\n    string[] PatientArray;\n\n    function addDonars(string memory _firstname, string memory _lastname, uint _age, string memory _gender,\n                       string memory _medical_id, string memory _blood_type, string memory _organ, string memory _location)\n    public\n    {\n        // Set parameters as required\n        require(bytes(_firstname).length > 0, \"No data found. Enter first name.\");\n        require(bytes(_lastname).length > 0, \"No data found. Enter second name.\");\n        require(uint(_age) > 0, \"No data found. Enter age.\");\n        require(bytes(_gender).length > 0, \"No data found. Enter gender.\");\n        require(bytes(_medical_id).length > 0, \"No data found. Enter medical ID.\");\n        require(bytes(_blood_type).length > 0, \"No data found. Enter blood-type.\");\n        require(bytes(_organ).length > 0, \"No data found. Enter organ.\");\n        require(bytes(_location).length > 0, \"No data found. Enter location.\");\n\n        require ( keccak256(abi.encodePacked((donarMap[_medical_id].medical_id))) != keccak256(abi.encodePacked(_medical_id)));\n        donarMap[_medical_id].firstname = _firstname;\n        donarMap[_medical_id].lastname = _lastname;\n        donarMap[_medical_id].age = _age;\n        donarMap[_medical_id].gender = _gender;\n        donarMap[_medical_id].medical_id = _medical_id;\n        donarMap[_medical_id].blood_type = _blood_type;\n        donarMap[_medical_id].organ = _organ;\n        donarMap[_medical_id].location = _location;\n\n        DonarsArray.push(_medical_id);\n    }\n\n    function addPatients(string memory _firstname, string memory _lastname, uint _age, string memory _gender,\n                       string memory _medical_id, string memory _blood_type, string memory _organ, string memory _location)\n    public\n    {\n        // Set parameters as required\n        require(bytes(_firstname).length > 0, \"No data found. Enter first name.\");\n        require(bytes(_lastname).length > 0, \"No data found. Enter second name.\");\n        require(uint(_age) > 0, \"No data found. Enter age.\");\n        require(bytes(_gender).length > 0, \"No data found. Enter gender.\");\n        require(bytes(_medical_id).length > 0, \"No data found. Enter medical ID.\");\n        require(bytes(_blood_type).length > 0, \"No data found. Enter blood-type.\");\n        require(bytes(_organ).length > 0, \"No data found. Enter organ.\");\n        require(bytes(_location).length > 0, \"No data found. Enter location.\");\n\n        require ( keccak256(abi.encodePacked((donarMap[_medical_id].medical_id))) != keccak256(abi.encodePacked(_medical_id)) );\n        patientMap[_medical_id].firstname = _firstname;\n        patientMap[_medical_id].lastname = _lastname;\n        patientMap[_medical_id].age = _age;\n        patientMap[_medical_id].gender = _gender;\n        patientMap[_medical_id].medical_id = _medical_id;\n        patientMap[_medical_id].blood_type = _blood_type;\n        patientMap[_medical_id].organ = _organ;\n        patientMap[_medical_id].location = _location;\n\n        PatientArray.push(_medical_id);\n    }\n\n    function getDonar(string memory _medical_id) view public returns(string memory ,string memory, uint, string memory, string memory, string memory, string memory)\n    {\n        return\n        (\n            donarMap[_medical_id].firstname,\n            donarMap[_medical_id].lastname,\n            donarMap[_medical_id].age,\n            donarMap[_medical_id].gender,\n            donarMap[_medical_id].blood_type,\n            donarMap[_medical_id].organ,\n            donarMap[_medical_id].location\n        );\n    }\n\n    function getPatient(string memory _medical_id) view public returns(string memory ,string memory, uint, string memory, string memory, string memory, string memory)\n    {\n        return\n        (\n            patientMap[_medical_id].firstname,\n            patientMap[_medical_id].lastname,\n            patientMap[_medical_id].age,\n            patientMap[_medical_id].gender,\n            patientMap[_medical_id].blood_type,\n            patientMap[_medical_id].organ,\n            patientMap[_medical_id].location\n        );\n    }\n\n    function validateDonar(string memory _medical_id) view public returns(bool)\n    {\n\n     if (keccak256(abi.encodePacked((donarMap[_medical_id].medical_id))) == keccak256(abi.encodePacked(_medical_id)))\n     return true;\n     else return false;\n\n    }\n\n    function validatePatient(string memory _medical_id) view public returns(bool)\n    {\n\n     if (keccak256(abi.encodePacked((patientMap[_medical_id].medical_id))) == keccak256(abi.encodePacked(_medical_id)))\n     return true;\n     else return false;\n\n    }\n\n    function getAllDonarIDs() view public returns(string[] memory)\n    {\n            return DonarsArray;\n    }\n\n    function getAllPatientIDs() view public returns(string[] memory)\n    {\n            return PatientArray;\n    }\n\n    function getCountOfDonars() view public returns (uint)\n    {\n        return DonarsArray.length;\n    }\n\n    function getCountOfPatients() view public returns (uint)\n    {\n        return PatientArray.length;\n    }\n\n}\n",
  "sourcePath": "/home/ray/repos/organ-donation-mini-project/contracts/DonarContract.sol",
  "compiler": {
    "name": "solc",
    "version": "0.8.10+commit.fc410830.Emscripten.clang"
  },
  "schemaVersion": "3.4.4",
  "updatedAt": "2022-01-10T14:06:14.335Z",
  "networkType": "ethereum",
  "devdoc": {
    "kind": "dev",
    "methods": {},
    "version": 1
  },
  "userdoc": {
    "kind": "user",
    "methods": {},
    "version": 1
  }
}