{
  "contractName": "DonarContract",
  "abi": [
    {
      "inputs": [
        {
          "internalType": "string",
          "name": "_firstname",
          "type": "string"
        },
        {
          "internalType": "string",
          "name": "_lastname",
          "type": "string"
        },
        {
          "internalType": "uint256",
          "name": "_age",
          "type": "uint256"
        },
        {
          "internalType": "string",
          "name": "_gender",
          "type": "string"
        },
        {
          "internalType": "string",
          "name": "_medical_id",
          "type": "string"
        },
        {
          "internalType": "string",
          "name": "_blood_type",
          "type": "string"
        },
        {
          "internalType": "string",
          "name": "_organ",
          "type": "string"
        },
        {
          "internalType": "string",
          "name": "_location",
          "type": "string"
        }
      ],
      "name": "addDonars",
      "outputs": [],
      "stateMutability": "nonpayable",
      "type": "function"
    },
    {
      "inputs": [
        {
          "internalType": "string",
          "name": "_firstname",
          "type": "string"
        },
        {
          "internalType": "string",
          "name": "_lastname",
          "type": "string"
        },
        {
          "internalType": "uint256",
          "name": "_age",
          "type": "uint256"
        },
        {
          "internalType": "string",
          "name": "_gender",
          "type": "string"
        },
        {
          "internalType": "string",
          "name": "_medical_id",
          "type": "string"
        },
        {
          "internalType": "string",
          "name": "_blood_type",
          "type": "string"
        },
        {
          "internalType": "string",
          "name": "_organ",
          "type": "string"
        },
        {
          "internalType": "string",
          "name": "_location",
          "type": "string"
        }
      ],
      "name": "addPatients",
      "outputs": [],
      "stateMutability": "nonpayable",
      "type": "function"
    },
    {
      "inputs": [
        {
          "internalType": "string",
          "name": "_medical_id",
          "type": "string"
        }
      ],
      "name": "getDonar",
      "outputs": [
        {
          "internalType": "string",
          "name": "",
          "type": "string"
        },
        {
          "internalType": "string",
          "name": "",
          "type": "string"
        },
        {
          "internalType": "uint256",
          "name": "",
          "type": "uint256"
        },
        {
          "internalType": "string",
          "name": "",
          "type": "string"
        },
        {
          "internalType": "string",
          "name": "",
          "type": "string"
        },
        {
          "internalType": "string",
          "name": "",
          "type": "string"
        },
        {
          "internalType": "string",
          "name": "",
          "type": "string"
        }
      ],
      "stateMutability": "view",
      "type": "function"
    },
    {
      "inputs": [
        {
          "internalType": "string",
          "name": "_medical_id",
          "type": "string"
        }
      ],
      "name": "getPatient",
      "outputs": [
        {
          "internalType": "string",
          "name": "",
          "type": "string"
        },
        {
          "internalType": "string",
          "name": "",
          "type": "string"
        },
        {
          "internalType": "uint256",
          "name": "",
          "type": "uint256"
        },
        {
          "internalType": "string",
          "name": "",
          "type": "string"
        },
        {
          "internalType": "string",
          "name": "",
          "type": "string"
        },
        {
          "internalType": "string",
          "name": "",
          "type": "string"
        },
        {
          "internalType": "string",
          "name": "",
          "type": "string"
        }
      ],
      "stateMutability": "view",
      "type": "function"
    },
    {
      "inputs": [
        {
          "internalType": "string",
          "name": "_medical_id",
          "type": "string"
        }
      ],
      "name": "validateDonar",
      "outputs": [
        {
          "internalType": "bool",
          "name": "",
          "type": "bool"
        }
      ],
      "stateMutability": "view",
      "type": "function"
    },
    {
      "inputs": [
        {
          "internalType": "string",
          "name": "_medical_id",
          "type": "string"
        }
      ],
      "name": "validatePatient",
      "outputs": [
        {
          "internalType": "bool",
          "name": "",
          "type": "bool"
        }
      ],
      "stateMutability": "view",
      "type": "function"
    },
    {
      "inputs": [],
      "name": "getAllDonarIDs",
      "outputs": [
        {
          "internalType": "string[]",
          "name": "",
          "type": "string[]"
        }
      ],
      "stateMutability": "view",
      "type": "function"
    },
    {
      "inputs": [],
      "name": "getAllPatientIDs",
      "outputs": [
        {
          "internalType": "string[]",
          "name": "",
          "type": "string[]"
        }
      ],
      "stateMutability": "view",
      "type": "function"
    },
    {
      "inputs": [],
      "name": "getCountOfDonars",
      "outputs": [
        {
          "internalType": "uint256",
          "name": "",
          "type": "uint256"
        }
      ],
      "stateMutability": "view",
      "type": "function"
    },
    {
      "inputs": [],
      "name": "getCountOfPatients",
      "outputs": [
        {
          "internalType": "uint256",
          "name": "",
          "type": "uint256"
        }
      ],
      "stateMutability": "view",
      "type": "function"
    }
  ],
  "bytecode": "0x608060405234801561001057600080fd5b50611a9d806100206000396000f3fe608060405234801561001057600080fd5b506004361061009e5760003560e01c8063c925b94611610066578063c925b9461461014f578063cdbe30dd1461016b578063d0544a8d1461019b578063e79a7a2e146101b9578063ef1215c3146101ef5761009e565b8063037f6aa5146100a35780632778739d146100c1578063463636d6146100dd578063b129fa0614610113578063b388561014610131575b600080fd5b6100ab61021f565b6040516100b8919061131f565b60405180910390f35b6100db60048036038101906100d691906114c0565b61022c565b005b6100f760048036038101906100f2919061163a565b61048b565b60405161010a979695949392919061170b565b60405180910390f35b61011b6108df565b60405161012891906118b0565b60405180910390f35b6101396109b8565b604051610146919061131f565b60405180910390f35b610169600480360381019061016491906114c0565b6109c5565b005b6101856004803603810190610180919061163a565b610c24565b60405161019291906118ed565b60405180910390f35b6101a3610cad565b6040516101b091906118b0565b60405180910390f35b6101d360048036038101906101ce919061163a565b610d86565b6040516101e6979695949392919061170b565b60405180910390f35b6102096004803603810190610204919061163a565b6111da565b60405161021691906118ed565b60405180910390f35b6000600280549050905090565b8360405160200161023d9190611944565b604051602081830303815290604052805190602001206000856040516102639190611944565b90815260200160405180910390206004016040516020016102849190611a50565b6040516020818303038152906040528051906020012014156102a557600080fd5b876001856040516102b69190611944565b908152602001604051809103902060000190805190602001906102da929190611263565b50866001856040516102ec9190611944565b90815260200160405180910390206001019080519060200190610310929190611263565b50856001856040516103229190611944565b908152602001604051809103902060020181905550846001856040516103489190611944565b9081526020016040518091039020600301908051906020019061036c929190611263565b508360018560405161037e9190611944565b908152602001604051809103902060040190805190602001906103a2929190611263565b50826001856040516103b49190611944565b908152602001604051809103902060050190805190602001906103d8929190611263565b50816001856040516103ea9190611944565b9081526020016040518091039020600601908051906020019061040e929190611263565b50806001856040516104209190611944565b90815260200160405180910390206007019080519060200190610444929190611263565b50600384908060018154018082558091505060019003906000526020600020016000909190919091509080519060200190610480929190611263565b505050505050505050565b60608060006060806060806000886040516104a69190611944565b90815260200160405180910390206000016000896040516104c79190611944565b908152602001604051809103902060010160008a6040516104e89190611944565b90815260200160405180910390206002015460008b60405161050a9190611944565b908152602001604051809103902060030160008c60405161052b9190611944565b908152602001604051809103902060050160008d60405161054c9190611944565b908152602001604051809103902060060160008e60405161056d9190611944565b908152602001604051809103902060070186805461058a9061198a565b80601f01602080910402602001604051908101604052809291908181526020018280546105b69061198a565b80156106035780601f106105d857610100808354040283529160200191610603565b820191906000526020600020905b8154815290600101906020018083116105e657829003601f168201915b505050505096508580546106169061198a565b80601f01602080910402602001604051908101604052809291908181526020018280546106429061198a565b801561068f5780601f106106645761010080835404028352916020019161068f565b820191906000526020600020905b81548152906001019060200180831161067257829003601f168201915b505050505095508380546106a29061198a565b80601f01602080910402602001604051908101604052809291908181526020018280546106ce9061198a565b801561071b5780601f106106f05761010080835404028352916020019161071b565b820191906000526020600020905b8154815290600101906020018083116106fe57829003601f168201915b5050505050935082805461072e9061198a565b80601f016020809104026020016040519081016040528092919081815260200182805461075a9061198a565b80156107a75780601f1061077c576101008083540402835291602001916107a7565b820191906000526020600020905b81548152906001019060200180831161078a57829003601f168201915b505050505092508180546107ba9061198a565b80601f01602080910402602001604051908101604052809291908181526020018280546107e69061198a565b80156108335780601f1061080857610100808354040283529160200191610833565b820191906000526020600020905b81548152906001019060200180831161081657829003601f168201915b505050505091508080546108469061198a565b80601f01602080910402602001604051908101604052809291908181526020018280546108729061198a565b80156108bf5780601f10610894576101008083540402835291602001916108bf565b820191906000526020600020905b8154815290600101906020018083116108a257829003601f168201915b505050505090509650965096509650965096509650919395979092949650565b60606002805480602002602001604051908101604052809291908181526020016000905b828210156109af5783829060005260206000200180546109229061198a565b80601f016020809104026020016040519081016040528092919081815260200182805461094e9061198a565b801561099b5780601f106109705761010080835404028352916020019161099b565b820191906000526020600020905b81548152906001019060200180831161097e57829003601f168201915b505050505081526020019060010190610903565b50505050905090565b6000600380549050905090565b836040516020016109d69190611944565b604051602081830303815290604052805190602001206000856040516109fc9190611944565b9081526020016040518091039020600401604051602001610a1d9190611a50565b604051602081830303815290604052805190602001201415610a3e57600080fd5b87600085604051610a4f9190611944565b90815260200160405180910390206000019080519060200190610a73929190611263565b5086600085604051610a859190611944565b90815260200160405180910390206001019080519060200190610aa9929190611263565b5085600085604051610abb9190611944565b90815260200160405180910390206002018190555084600085604051610ae19190611944565b90815260200160405180910390206003019080519060200190610b05929190611263565b5083600085604051610b179190611944565b90815260200160405180910390206004019080519060200190610b3b929190611263565b5082600085604051610b4d9190611944565b90815260200160405180910390206005019080519060200190610b71929190611263565b5081600085604051610b839190611944565b90815260200160405180910390206006019080519060200190610ba7929190611263565b5080600085604051610bb99190611944565b90815260200160405180910390206007019080519060200190610bdd929190611263565b50600284908060018154018082558091505060019003906000526020600020016000909190919091509080519060200190610c19929190611263565b505050505050505050565b600081604051602001610c379190611944565b60405160208183030381529060405280519060200120600083604051610c5d9190611944565b9081526020016040518091039020600401604051602001610c7e9190611a50565b604051602081830303815290604052805190602001201415610ca35760019050610ca8565b600090505b919050565b60606003805480602002602001604051908101604052809291908181526020016000905b82821015610d7d578382906000526020600020018054610cf09061198a565b80601f0160208091040260200160405190810160405280929190818152602001828054610d1c9061198a565b8015610d695780601f10610d3e57610100808354040283529160200191610d69565b820191906000526020600020905b815481529060010190602001808311610d4c57829003601f168201915b505050505081526020019060010190610cd1565b50505050905090565b6060806000606080606080600188604051610da19190611944565b9081526020016040518091039020600001600189604051610dc29190611944565b908152602001604051809103902060010160018a604051610de39190611944565b90815260200160405180910390206002015460018b604051610e059190611944565b908152602001604051809103902060030160018c604051610e269190611944565b908152602001604051809103902060050160018d604051610e479190611944565b908152602001604051809103902060060160018e604051610e689190611944565b9081526020016040518091039020600701868054610e859061198a565b80601f0160208091040260200160405190810160405280929190818152602001828054610eb19061198a565b8015610efe5780601f10610ed357610100808354040283529160200191610efe565b820191906000526020600020905b815481529060010190602001808311610ee157829003601f168201915b50505050509650858054610f119061198a565b80601f0160208091040260200160405190810160405280929190818152602001828054610f3d9061198a565b8015610f8a5780601f10610f5f57610100808354040283529160200191610f8a565b820191906000526020600020905b815481529060010190602001808311610f6d57829003601f168201915b50505050509550838054610f9d9061198a565b80601f0160208091040260200160405190810160405280929190818152602001828054610fc99061198a565b80156110165780601f10610feb57610100808354040283529160200191611016565b820191906000526020600020905b815481529060010190602001808311610ff957829003601f168201915b505050505093508280546110299061198a565b80601f01602080910402602001604051908101604052809291908181526020018280546110559061198a565b80156110a25780601f10611077576101008083540402835291602001916110a2565b820191906000526020600020905b81548152906001019060200180831161108557829003601f168201915b505050505092508180546110b59061198a565b80601f01602080910402602001604051908101604052809291908181526020018280546110e19061198a565b801561112e5780601f106111035761010080835404028352916020019161112e565b820191906000526020600020905b81548152906001019060200180831161111157829003601f168201915b505050505091508080546111419061198a565b80601f016020809104026020016040519081016040528092919081815260200182805461116d9061198a565b80156111ba5780601f1061118f576101008083540402835291602001916111ba565b820191906000526020600020905b81548152906001019060200180831161119d57829003601f168201915b505050505090509650965096509650965096509650919395979092949650565b6000816040516020016111ed9190611944565b604051602081830303815290604052805190602001206001836040516112139190611944565b90815260200160405180910390206004016040516020016112349190611a50565b604051602081830303815290604052805190602001201415611259576001905061125e565b600090505b919050565b82805461126f9061198a565b90600052602060002090601f01602090048101928261129157600085556112d8565b82601f106112aa57805160ff19168380011785556112d8565b828001600101855582156112d8579182015b828111156112d75782518255916020019190600101906112bc565b5b5090506112e591906112e9565b5090565b5b808211156113025760008160009055506001016112ea565b5090565b6000819050919050565b61131981611306565b82525050565b60006020820190506113346000830184611310565b92915050565b6000604051905090565b600080fd5b600080fd5b600080fd5b600080fd5b6000601f19601f8301169050919050565b7f4e487b7100000000000000000000000000000000000000000000000000000000600052604160045260246000fd5b6113a182611358565b810181811067ffffffffffffffff821117156113c0576113bf611369565b5b80604052505050565b60006113d361133a565b90506113df8282611398565b919050565b600067ffffffffffffffff8211156113ff576113fe611369565b5b61140882611358565b9050602081019050919050565b82818337600083830152505050565b6000611437611432846113e4565b6113c9565b90508281526020810184848401111561145357611452611353565b5b61145e848285611415565b509392505050565b600082601f83011261147b5761147a61134e565b5b813561148b848260208601611424565b91505092915050565b61149d81611306565b81146114a857600080fd5b50565b6000813590506114ba81611494565b92915050565b600080600080600080600080610100898b0312156114e1576114e0611344565b5b600089013567ffffffffffffffff8111156114ff576114fe611349565b5b61150b8b828c01611466565b985050602089013567ffffffffffffffff81111561152c5761152b611349565b5b6115388b828c01611466565b97505060406115498b828c016114ab565b965050606089013567ffffffffffffffff81111561156a57611569611349565b5b6115768b828c01611466565b955050608089013567ffffffffffffffff81111561159757611596611349565b5b6115a38b828c01611466565b94505060a089013567ffffffffffffffff8111156115c4576115c3611349565b5b6115d08b828c01611466565b93505060c089013567ffffffffffffffff8111156115f1576115f0611349565b5b6115fd8b828c01611466565b92505060e089013567ffffffffffffffff81111561161e5761161d611349565b5b61162a8b828c01611466565b9150509295985092959890939650565b6000602082840312156116505761164f611344565b5b600082013567ffffffffffffffff81111561166e5761166d611349565b5b61167a84828501611466565b91505092915050565b600081519050919050565b600082825260208201905092915050565b60005b838110156116bd5780820151818401526020810190506116a2565b838111156116cc576000848401525b50505050565b60006116dd82611683565b6116e7818561168e565b93506116f781856020860161169f565b61170081611358565b840191505092915050565b600060e0820190508181036000830152611725818a6116d2565b9050818103602083015261173981896116d2565b90506117486040830188611310565b818103606083015261175a81876116d2565b9050818103608083015261176e81866116d2565b905081810360a083015261178281856116d2565b905081810360c083015261179681846116d2565b905098975050505050505050565b600081519050919050565b600082825260208201905092915050565b6000819050602082019050919050565b600082825260208201905092915050565b60006117ec82611683565b6117f681856117d0565b935061180681856020860161169f565b61180f81611358565b840191505092915050565b600061182683836117e1565b905092915050565b6000602082019050919050565b6000611846826117a4565b61185081856117af565b935083602082028501611862856117c0565b8060005b8581101561189e578484038952815161187f858261181a565b945061188a8361182e565b925060208a01995050600181019050611866565b50829750879550505050505092915050565b600060208201905081810360008301526118ca818461183b565b905092915050565b60008115159050919050565b6118e7816118d2565b82525050565b600060208201905061190260008301846118de565b92915050565b600081905092915050565b600061191e82611683565b6119288185611908565b935061193881856020860161169f565b80840191505092915050565b60006119508284611913565b915081905092915050565b7f4e487b7100000000000000000000000000000000000000000000000000000000600052602260045260246000fd5b600060028204905060018216806119a257607f821691505b602082108114156119b6576119b561195b565b5b50919050565b60008190508160005260206000209050919050565b600081546119de8161198a565b6119e88186611908565b94506001821660008114611a035760018114611a1457611a47565b60ff19831686528186019350611a47565b611a1d856119bc565b60005b83811015611a3f57815481890152600182019150602081019050611a20565b838801955050505b50505092915050565b6000611a5c82846119d1565b91508190509291505056fea2646970667358221220beec0ef88083a17092fa8fa03aa6312f8452353f6c9400af2005e2461d6e286264736f6c634300080a0033",
  "immutableReferences": {},
  "source": "// SPDX-License-Identifier: MIT\npragma solidity ^0.8.10;\n\ncontract DonarContract {\n\n    struct donar\n    {\n\n        string firstname;\n        string lastname;\n        uint age;\n        string gender;\n        string medical_id;\n        string blood_type;\n        string organ;\n        string location;\n\n    }\n\n    struct patient\n    {\n\n        string firstname;\n        string lastname;\n        uint age;\n        string gender;\n        string medical_id;\n        string blood_type;\n        string organ;\n        string location;\n\n    }\n\n    mapping ( string =>donar ) donarMap;\n    mapping ( string =>patient) patientMap;\n\n    string[] DonarsArray;\n    string[] PatientArray;\n\n    function addDonars(string memory _firstname, string memory _lastname, uint _age, string memory _gender,\n                       string memory _medical_id, string memory _blood_type, string memory _organ, string memory _location)\n    public\n    {\n        require ( keccak256(abi.encodePacked((donarMap[_medical_id].medical_id))) != keccak256(abi.encodePacked(_medical_id)));\n        donarMap[_medical_id].firstname = _firstname;\n        donarMap[_medical_id].lastname = _lastname;\n        donarMap[_medical_id].age = _age;\n        donarMap[_medical_id].gender = _gender;\n        donarMap[_medical_id].medical_id = _medical_id;\n        donarMap[_medical_id].blood_type = _blood_type;\n        donarMap[_medical_id].organ = _organ;\n        donarMap[_medical_id].location = _location;\n\n        DonarsArray.push(_medical_id);\n    }\n\n    function addPatients(string memory _firstname, string memory _lastname, uint _age, string memory _gender,\n                       string memory _medical_id, string memory _blood_type, string memory _organ, string memory _location)\n    public\n    {\n        require ( keccak256(abi.encodePacked((donarMap[_medical_id].medical_id))) != keccak256(abi.encodePacked(_medical_id)) );\n        patientMap[_medical_id].firstname = _firstname;\n        patientMap[_medical_id].lastname = _lastname;\n        patientMap[_medical_id].age = _age;\n        patientMap[_medical_id].gender = _gender;\n        patientMap[_medical_id].medical_id = _medical_id;\n        patientMap[_medical_id].blood_type = _blood_type;\n        patientMap[_medical_id].organ = _organ;\n        patientMap[_medical_id].location = _location;\n\n        PatientArray.push(_medical_id);\n    }\n\n    function getDonar(string memory _medical_id) view public returns(string memory ,string memory, uint, string memory, string memory, string memory, string memory)\n    {\n        return\n        (\n            donarMap[_medical_id].firstname,\n            donarMap[_medical_id].lastname,\n            donarMap[_medical_id].age,\n            donarMap[_medical_id].gender,\n            donarMap[_medical_id].blood_type,\n            donarMap[_medical_id].organ,\n            donarMap[_medical_id].location\n        );\n    }\n\n    function getPatient(string memory _medical_id) view public returns(string memory ,string memory, uint, string memory, string memory, string memory, string memory)\n    {\n        return\n        (\n            patientMap[_medical_id].firstname,\n            patientMap[_medical_id].lastname,\n            patientMap[_medical_id].age,\n            patientMap[_medical_id].gender,\n            patientMap[_medical_id].blood_type,\n            patientMap[_medical_id].organ,\n            patientMap[_medical_id].location\n        );\n    }\n\n    function validateDonar(string memory _medical_id) view public returns(bool)\n    {\n\n     if (keccak256(abi.encodePacked((donarMap[_medical_id].medical_id))) == keccak256(abi.encodePacked(_medical_id)))\n     return true;\n     else return false;\n\n    }\n\n    function validatePatient(string memory _medical_id) view public returns(bool)\n    {\n\n     if (keccak256(abi.encodePacked((patientMap[_medical_id].medical_id))) == keccak256(abi.encodePacked(_medical_id)))\n     return true;\n     else return false;\n\n    }\n\n    function getAllDonarIDs() view public returns(string[] memory)\n    {\n            return DonarsArray;\n    }\n\n    function getAllPatientIDs() view public returns(string[] memory)\n    {\n            return PatientArray;\n    }\n\n    function getCountOfDonars() view public returns (uint)\n    {\n        return DonarsArray.length;\n    }\n\n    function getCountOfPatients() view public returns (uint)\n    {\n        return PatientArray.length;\n    }\n\n}\n",
  "sourcePath": "/home/ray/repos/organ-donation-mini-project/contracts/DonarContract.sol",
  "compiler": {
    "name": "solc",
    "version": "0.8.10+commit.fc410830.Emscripten.clang"
  },
  "schemaVersion": "3.4.4",
  "updatedAt": "2022-01-10T15:10:26.189Z",
  "devdoc": {
    "kind": "dev",
    "methods": {},
    "version": 1
  },
  "userdoc": {
    "kind": "user",
    "methods": {},
    "version": 1
  }
}