{
  "contractName": "DonorContract",
  "abi": [
    {
      "inputs": [
        {
          "internalType": "string",
          "name": "_firstname",
          "type": "string"
        },
        {
          "internalType": "string",
          "name": "_lastname",
          "type": "string"
        },
        {
          "internalType": "uint256",
          "name": "_age",
          "type": "uint256"
        },
        {
          "internalType": "string",
          "name": "_gender",
          "type": "string"
        },
        {
          "internalType": "string",
          "name": "_medical_id",
          "type": "string"
        },
        {
          "internalType": "string",
          "name": "_blood_type",
          "type": "string"
        },
        {
          "internalType": "string",
          "name": "_organ",
          "type": "string"
        },
        {
          "internalType": "string",
          "name": "_location",
          "type": "string"
        }
      ],
      "name": "setdonors",
      "outputs": [],
      "stateMutability": "nonpayable",
      "type": "function"
    },
    {
      "inputs": [
        {
          "internalType": "string",
          "name": "_firstname",
          "type": "string"
        },
        {
          "internalType": "string",
          "name": "_lastname",
          "type": "string"
        },
        {
          "internalType": "uint256",
          "name": "_age",
          "type": "uint256"
        },
        {
          "internalType": "string",
          "name": "_gender",
          "type": "string"
        },
        {
          "internalType": "string",
          "name": "_medical_id",
          "type": "string"
        },
        {
          "internalType": "string",
          "name": "_blood_type",
          "type": "string"
        },
        {
          "internalType": "string",
          "name": "_organ",
          "type": "string"
        },
        {
          "internalType": "string",
          "name": "_location",
          "type": "string"
        }
      ],
      "name": "setPatients",
      "outputs": [],
      "stateMutability": "nonpayable",
      "type": "function"
    },
    {
      "inputs": [
        {
          "internalType": "string",
          "name": "_medical_id",
          "type": "string"
        }
      ],
      "name": "getdonor",
      "outputs": [
        {
          "internalType": "string",
          "name": "",
          "type": "string"
        },
        {
          "internalType": "string",
          "name": "",
          "type": "string"
        },
        {
          "internalType": "uint256",
          "name": "",
          "type": "uint256"
        },
        {
          "internalType": "string",
          "name": "",
          "type": "string"
        },
        {
          "internalType": "string",
          "name": "",
          "type": "string"
        },
        {
          "internalType": "string",
          "name": "",
          "type": "string"
        },
        {
          "internalType": "string",
          "name": "",
          "type": "string"
        }
      ],
      "stateMutability": "view",
      "type": "function"
    },
    {
      "inputs": [
        {
          "internalType": "string",
          "name": "_medical_id",
          "type": "string"
        }
      ],
      "name": "getPatient",
      "outputs": [
        {
          "internalType": "string",
          "name": "",
          "type": "string"
        },
        {
          "internalType": "string",
          "name": "",
          "type": "string"
        },
        {
          "internalType": "uint256",
          "name": "",
          "type": "uint256"
        },
        {
          "internalType": "string",
          "name": "",
          "type": "string"
        },
        {
          "internalType": "string",
          "name": "",
          "type": "string"
        },
        {
          "internalType": "string",
          "name": "",
          "type": "string"
        },
        {
          "internalType": "string",
          "name": "",
          "type": "string"
        }
      ],
      "stateMutability": "view",
      "type": "function"
    },
    {
      "inputs": [
        {
          "internalType": "string",
          "name": "_medical_id",
          "type": "string"
        }
      ],
      "name": "validateDonor",
      "outputs": [
        {
          "internalType": "bool",
          "name": "",
          "type": "bool"
        }
      ],
      "stateMutability": "view",
      "type": "function"
    },
    {
      "inputs": [
        {
          "internalType": "string",
          "name": "_medical_id",
          "type": "string"
        }
      ],
      "name": "validatePatient",
      "outputs": [
        {
          "internalType": "bool",
          "name": "",
          "type": "bool"
        }
      ],
      "stateMutability": "view",
      "type": "function"
    },
    {
      "inputs": [],
      "name": "getAlldonorIDs",
      "outputs": [
        {
          "internalType": "string[]",
          "name": "",
          "type": "string[]"
        }
      ],
      "stateMutability": "view",
      "type": "function"
    },
    {
      "inputs": [],
      "name": "getAllPatientIDs",
      "outputs": [
        {
          "internalType": "string[]",
          "name": "",
          "type": "string[]"
        }
      ],
      "stateMutability": "view",
      "type": "function"
    },
    {
      "inputs": [],
      "name": "getCountOfDonors",
      "outputs": [
        {
          "internalType": "uint256",
          "name": "",
          "type": "uint256"
        }
      ],
      "stateMutability": "view",
      "type": "function"
    },
    {
      "inputs": [],
      "name": "getCountOfPatients",
      "outputs": [
        {
          "internalType": "uint256",
          "name": "",
          "type": "uint256"
        }
      ],
      "stateMutability": "view",
      "type": "function"
    }
  ],
  "bytecode": "0x608060405234801561001057600080fd5b50611a9d806100206000396000f3fe608060405234801561001057600080fd5b506004361061009e5760003560e01c8063c8752e1711610066578063c8752e1714610161578063d0544a8d1461017d578063d88622461461019b578063e79a7a2e146101b9578063ef1215c3146101ef5761009e565b806370395615146100a35780638261f9e5146100d957806389d53d00146100f55780639b81120914610113578063b388561014610143575b600080fd5b6100bd60048036038101906100b89190611460565b61021f565b6040516100d0979695949392919061154a565b60405180910390f35b6100f360048036038101906100ee919061160f565b610673565b005b6100fd6108d2565b60405161010a9190611789565b60405180910390f35b61012d60048036038101906101289190611460565b6108df565b60405161013a91906117bf565b60405180910390f35b61014b610968565b6040516101589190611789565b60405180910390f35b61017b6004803603810190610176919061160f565b610975565b005b610185610bd4565b60405161019291906118e6565b60405180910390f35b6101a3610cad565b6040516101b091906118e6565b60405180910390f35b6101d360048036038101906101ce9190611460565b610d86565b6040516101e6979695949392919061154a565b60405180910390f35b61020960048036038101906102049190611460565b6111da565b60405161021691906117bf565b60405180910390f35b606080600060608060608060008860405161023a9190611944565b908152602001604051809103902060000160008960405161025b9190611944565b908152602001604051809103902060010160008a60405161027c9190611944565b90815260200160405180910390206002015460008b60405161029e9190611944565b908152602001604051809103902060030160008c6040516102bf9190611944565b908152602001604051809103902060050160008d6040516102e09190611944565b908152602001604051809103902060060160008e6040516103019190611944565b908152602001604051809103902060070186805461031e9061198a565b80601f016020809104026020016040519081016040528092919081815260200182805461034a9061198a565b80156103975780601f1061036c57610100808354040283529160200191610397565b820191906000526020600020905b81548152906001019060200180831161037a57829003601f168201915b505050505096508580546103aa9061198a565b80601f01602080910402602001604051908101604052809291908181526020018280546103d69061198a565b80156104235780601f106103f857610100808354040283529160200191610423565b820191906000526020600020905b81548152906001019060200180831161040657829003601f168201915b505050505095508380546104369061198a565b80601f01602080910402602001604051908101604052809291908181526020018280546104629061198a565b80156104af5780601f10610484576101008083540402835291602001916104af565b820191906000526020600020905b81548152906001019060200180831161049257829003601f168201915b505050505093508280546104c29061198a565b80601f01602080910402602001604051908101604052809291908181526020018280546104ee9061198a565b801561053b5780601f106105105761010080835404028352916020019161053b565b820191906000526020600020905b81548152906001019060200180831161051e57829003601f168201915b5050505050925081805461054e9061198a565b80601f016020809104026020016040519081016040528092919081815260200182805461057a9061198a565b80156105c75780601f1061059c576101008083540402835291602001916105c7565b820191906000526020600020905b8154815290600101906020018083116105aa57829003601f168201915b505050505091508080546105da9061198a565b80601f01602080910402602001604051908101604052809291908181526020018280546106069061198a565b80156106535780601f1061062857610100808354040283529160200191610653565b820191906000526020600020905b81548152906001019060200180831161063657829003601f168201915b505050505090509650965096509650965096509650919395979092949650565b836040516020016106849190611944565b604051602081830303815290604052805190602001206001856040516106aa9190611944565b90815260200160405180910390206004016040516020016106cb9190611a50565b6040516020818303038152906040528051906020012014156106ec57600080fd5b876001856040516106fd9190611944565b90815260200160405180910390206000019080519060200190610721929190611263565b50866001856040516107339190611944565b90815260200160405180910390206001019080519060200190610757929190611263565b50856001856040516107699190611944565b9081526020016040518091039020600201819055508460018560405161078f9190611944565b908152602001604051809103902060030190805190602001906107b3929190611263565b50836001856040516107c59190611944565b908152602001604051809103902060040190805190602001906107e9929190611263565b50826001856040516107fb9190611944565b9081526020016040518091039020600501908051906020019061081f929190611263565b50816001856040516108319190611944565b90815260200160405180910390206006019080519060200190610855929190611263565b50806001856040516108679190611944565b9081526020016040518091039020600701908051906020019061088b929190611263565b506003849080600181540180825580915050600190039060005260206000200160009091909190915090805190602001906108c7929190611263565b505050505050505050565b6000600280549050905090565b6000816040516020016108f29190611944565b604051602081830303815290604052805190602001206000836040516109189190611944565b90815260200160405180910390206004016040516020016109399190611a50565b60405160208183030381529060405280519060200120141561095e5760019050610963565b600090505b919050565b6000600380549050905090565b836040516020016109869190611944565b604051602081830303815290604052805190602001206000856040516109ac9190611944565b90815260200160405180910390206004016040516020016109cd9190611a50565b6040516020818303038152906040528051906020012014156109ee57600080fd5b876000856040516109ff9190611944565b90815260200160405180910390206000019080519060200190610a23929190611263565b5086600085604051610a359190611944565b90815260200160405180910390206001019080519060200190610a59929190611263565b5085600085604051610a6b9190611944565b90815260200160405180910390206002018190555084600085604051610a919190611944565b90815260200160405180910390206003019080519060200190610ab5929190611263565b5083600085604051610ac79190611944565b90815260200160405180910390206004019080519060200190610aeb929190611263565b5082600085604051610afd9190611944565b90815260200160405180910390206005019080519060200190610b21929190611263565b5081600085604051610b339190611944565b90815260200160405180910390206006019080519060200190610b57929190611263565b5080600085604051610b699190611944565b90815260200160405180910390206007019080519060200190610b8d929190611263565b50600284908060018154018082558091505060019003906000526020600020016000909190919091509080519060200190610bc9929190611263565b505050505050505050565b60606003805480602002602001604051908101604052809291908181526020016000905b82821015610ca4578382906000526020600020018054610c179061198a565b80601f0160208091040260200160405190810160405280929190818152602001828054610c439061198a565b8015610c905780601f10610c6557610100808354040283529160200191610c90565b820191906000526020600020905b815481529060010190602001808311610c7357829003601f168201915b505050505081526020019060010190610bf8565b50505050905090565b60606002805480602002602001604051908101604052809291908181526020016000905b82821015610d7d578382906000526020600020018054610cf09061198a565b80601f0160208091040260200160405190810160405280929190818152602001828054610d1c9061198a565b8015610d695780601f10610d3e57610100808354040283529160200191610d69565b820191906000526020600020905b815481529060010190602001808311610d4c57829003601f168201915b505050505081526020019060010190610cd1565b50505050905090565b6060806000606080606080600188604051610da19190611944565b9081526020016040518091039020600001600189604051610dc29190611944565b908152602001604051809103902060010160018a604051610de39190611944565b90815260200160405180910390206002015460018b604051610e059190611944565b908152602001604051809103902060030160018c604051610e269190611944565b908152602001604051809103902060050160018d604051610e479190611944565b908152602001604051809103902060060160018e604051610e689190611944565b9081526020016040518091039020600701868054610e859061198a565b80601f0160208091040260200160405190810160405280929190818152602001828054610eb19061198a565b8015610efe5780601f10610ed357610100808354040283529160200191610efe565b820191906000526020600020905b815481529060010190602001808311610ee157829003601f168201915b50505050509650858054610f119061198a565b80601f0160208091040260200160405190810160405280929190818152602001828054610f3d9061198a565b8015610f8a5780601f10610f5f57610100808354040283529160200191610f8a565b820191906000526020600020905b815481529060010190602001808311610f6d57829003601f168201915b50505050509550838054610f9d9061198a565b80601f0160208091040260200160405190810160405280929190818152602001828054610fc99061198a565b80156110165780601f10610feb57610100808354040283529160200191611016565b820191906000526020600020905b815481529060010190602001808311610ff957829003601f168201915b505050505093508280546110299061198a565b80601f01602080910402602001604051908101604052809291908181526020018280546110559061198a565b80156110a25780601f10611077576101008083540402835291602001916110a2565b820191906000526020600020905b81548152906001019060200180831161108557829003601f168201915b505050505092508180546110b59061198a565b80601f01602080910402602001604051908101604052809291908181526020018280546110e19061198a565b801561112e5780601f106111035761010080835404028352916020019161112e565b820191906000526020600020905b81548152906001019060200180831161111157829003601f168201915b505050505091508080546111419061198a565b80601f016020809104026020016040519081016040528092919081815260200182805461116d9061198a565b80156111ba5780601f1061118f576101008083540402835291602001916111ba565b820191906000526020600020905b81548152906001019060200180831161119d57829003601f168201915b505050505090509650965096509650965096509650919395979092949650565b6000816040516020016111ed9190611944565b604051602081830303815290604052805190602001206001836040516112139190611944565b90815260200160405180910390206004016040516020016112349190611a50565b604051602081830303815290604052805190602001201415611259576001905061125e565b600090505b919050565b82805461126f9061198a565b90600052602060002090601f01602090048101928261129157600085556112d8565b82601f106112aa57805160ff19168380011785556112d8565b828001600101855582156112d8579182015b828111156112d75782518255916020019190600101906112bc565b5b5090506112e591906112e9565b5090565b5b808211156113025760008160009055506001016112ea565b5090565b6000604051905090565b600080fd5b600080fd5b600080fd5b600080fd5b6000601f19601f8301169050919050565b7f4e487b7100000000000000000000000000000000000000000000000000000000600052604160045260246000fd5b61136d82611324565b810181811067ffffffffffffffff8211171561138c5761138b611335565b5b80604052505050565b600061139f611306565b90506113ab8282611364565b919050565b600067ffffffffffffffff8211156113cb576113ca611335565b5b6113d482611324565b9050602081019050919050565b82818337600083830152505050565b60006114036113fe846113b0565b611395565b90508281526020810184848401111561141f5761141e61131f565b5b61142a8482856113e1565b509392505050565b600082601f8301126114475761144661131a565b5b81356114578482602086016113f0565b91505092915050565b60006020828403121561147657611475611310565b5b600082013567ffffffffffffffff81111561149457611493611315565b5b6114a084828501611432565b91505092915050565b600081519050919050565b600082825260208201905092915050565b60005b838110156114e35780820151818401526020810190506114c8565b838111156114f2576000848401525b50505050565b6000611503826114a9565b61150d81856114b4565b935061151d8185602086016114c5565b61152681611324565b840191505092915050565b6000819050919050565b61154481611531565b82525050565b600060e0820190508181036000830152611564818a6114f8565b9050818103602083015261157881896114f8565b9050611587604083018861153b565b818103606083015261159981876114f8565b905081810360808301526115ad81866114f8565b905081810360a08301526115c181856114f8565b905081810360c08301526115d581846114f8565b905098975050505050505050565b6115ec81611531565b81146115f757600080fd5b50565b600081359050611609816115e3565b92915050565b600080600080600080600080610100898b0312156116305761162f611310565b5b600089013567ffffffffffffffff81111561164e5761164d611315565b5b61165a8b828c01611432565b985050602089013567ffffffffffffffff81111561167b5761167a611315565b5b6116878b828c01611432565b97505060406116988b828c016115fa565b965050606089013567ffffffffffffffff8111156116b9576116b8611315565b5b6116c58b828c01611432565b955050608089013567ffffffffffffffff8111156116e6576116e5611315565b5b6116f28b828c01611432565b94505060a089013567ffffffffffffffff81111561171357611712611315565b5b61171f8b828c01611432565b93505060c089013567ffffffffffffffff8111156117405761173f611315565b5b61174c8b828c01611432565b92505060e089013567ffffffffffffffff81111561176d5761176c611315565b5b6117798b828c01611432565b9150509295985092959890939650565b600060208201905061179e600083018461153b565b92915050565b60008115159050919050565b6117b9816117a4565b82525050565b60006020820190506117d460008301846117b0565b92915050565b600081519050919050565b600082825260208201905092915050565b6000819050602082019050919050565b600082825260208201905092915050565b6000611822826114a9565b61182c8185611806565b935061183c8185602086016114c5565b61184581611324565b840191505092915050565b600061185c8383611817565b905092915050565b6000602082019050919050565b600061187c826117da565b61188681856117e5565b935083602082028501611898856117f6565b8060005b858110156118d457848403895281516118b58582611850565b94506118c083611864565b925060208a0199505060018101905061189c565b50829750879550505050505092915050565b600060208201905081810360008301526119008184611871565b905092915050565b600081905092915050565b600061191e826114a9565b6119288185611908565b93506119388185602086016114c5565b80840191505092915050565b60006119508284611913565b915081905092915050565b7f4e487b7100000000000000000000000000000000000000000000000000000000600052602260045260246000fd5b600060028204905060018216806119a257607f821691505b602082108114156119b6576119b561195b565b5b50919050565b60008190508160005260206000209050919050565b600081546119de8161198a565b6119e88186611908565b94506001821660008114611a035760018114611a1457611a47565b60ff19831686528186019350611a47565b611a1d856119bc565b60005b83811015611a3f57815481890152600182019150602081019050611a20565b838801955050505b50505092915050565b6000611a5c82846119d1565b91508190509291505056fea2646970667358221220c410c58bb6689282f056dd09e0f697424b2b54b3cea89ba88005fd8615695edf64736f6c634300080a0033",
  "immutableReferences": {},
  "source": "// SPDX-License-Identifier: MIT\npragma solidity ^0.8.10;\n\ncontract DonorContract {\n\n    struct donor\n    {\n\n        string firstname;\n        string lastname;\n        uint age;\n        string gender;\n        string medical_id;\n        string blood_type;\n        string organ;\n        string location;\n\n    }\n\n    struct patient\n    {\n\n        string firstname;\n        string lastname;\n        uint age;\n        string gender;\n        string medical_id;\n        string blood_type;\n        string organ;\n        string location;\n\n    }\n\n    mapping ( string =>donor ) donorMap;\n    mapping ( string =>patient) patientMap;\n\n    string[] DonorsArray;\n    string[] PatientArray;\n\n    function setdonors(string memory _firstname, string memory _lastname, uint _age, string memory _gender,\n                       string memory _medical_id, string memory _blood_type, string memory _organ, string memory _location)\n    public\n    {\n        require ( keccak256(abi.encodePacked((donorMap[_medical_id].medical_id))) != keccak256(abi.encodePacked(_medical_id)));\n        donorMap[_medical_id].firstname = _firstname;\n        donorMap[_medical_id].lastname = _lastname;\n        donorMap[_medical_id].age = _age;\n        donorMap[_medical_id].gender = _gender;\n        donorMap[_medical_id].medical_id = _medical_id;\n        donorMap[_medical_id].blood_type = _blood_type;\n        donorMap[_medical_id].organ = _organ;\n        donorMap[_medical_id].location = _location;\n\n        DonorsArray.push(_medical_id);\n    }\n\n    function setPatients(string memory _firstname, string memory _lastname, uint _age, string memory _gender,\n                       string memory _medical_id, string memory _blood_type, string memory _organ, string memory _location)\n    public\n    {\n        require ( keccak256(abi.encodePacked((patientMap[_medical_id].medical_id))) != keccak256(abi.encodePacked(_medical_id)) );\n        patientMap[_medical_id].firstname = _firstname;\n        patientMap[_medical_id].lastname = _lastname;\n        patientMap[_medical_id].age = _age;\n        patientMap[_medical_id].gender = _gender;\n        patientMap[_medical_id].medical_id = _medical_id;\n        patientMap[_medical_id].blood_type = _blood_type;\n        patientMap[_medical_id].organ = _organ;\n        patientMap[_medical_id].location = _location;\n\n        PatientArray.push(_medical_id);\n    }\n\n    function getdonor(string memory _medical_id) view public returns(string memory, string memory, uint, string memory, string memory, string memory, string memory)\n    {\n        return\n        (\n            donorMap[_medical_id].firstname,\n            donorMap[_medical_id].lastname,\n            donorMap[_medical_id].age,\n            donorMap[_medical_id].gender,\n            donorMap[_medical_id].blood_type,\n            donorMap[_medical_id].organ,\n            donorMap[_medical_id].location\n        );\n    }\n\n    function getPatient(string memory _medical_id) view public returns(string memory, string memory, uint, string memory, string memory, string memory, string memory)\n    {\n        return\n        (\n            patientMap[_medical_id].firstname,\n            patientMap[_medical_id].lastname,\n            patientMap[_medical_id].age,\n            patientMap[_medical_id].gender,\n            patientMap[_medical_id].blood_type,\n            patientMap[_medical_id].organ,\n            patientMap[_medical_id].location\n        );\n    }\n\n    function validateDonor(string memory _medical_id) view public returns(bool)\n    {\n\n     if (keccak256(abi.encodePacked((donorMap[_medical_id].medical_id))) == keccak256(abi.encodePacked(_medical_id)))\n     return true;\n     else return false;\n\n    }\n\n    function validatePatient(string memory _medical_id) view public returns(bool)\n    {\n\n     if (keccak256(abi.encodePacked((patientMap[_medical_id].medical_id))) == keccak256(abi.encodePacked(_medical_id)))\n     return true;\n     else return false;\n\n    }\n\n    function getAlldonorIDs() view public returns(string[] memory)\n    {\n            return DonorsArray;\n    }\n\n    function getAllPatientIDs() view public returns(string[] memory)\n    {\n            return PatientArray;\n    }\n\n    function getCountOfDonors() view public returns (uint)\n    {\n        return DonorsArray.length;\n    }\n\n    function getCountOfPatients() view public returns (uint)\n    {\n        return PatientArray.length;\n    }\n\n}",
  "sourcePath": "/home/ray/repos/organ-donation-mini-project/contracts/DonorContract.sol",
  "compiler": {
    "name": "solc",
    "version": "0.8.10+commit.fc410830.Emscripten.clang"
  },
  "schemaVersion": "3.4.4",
  "updatedAt": "2022-01-11T19:27:20.528Z",
  "devdoc": {
    "kind": "dev",
    "methods": {},
    "version": 1
  },
  "userdoc": {
    "kind": "user",
    "methods": {},
    "version": 1
  }
}