{
  "contractName": "DonorContract",
  "abi": [
    {
      "inputs": [
        {
          "internalType": "string",
          "name": "_firstname",
          "type": "string"
        },
        {
          "internalType": "string",
          "name": "_lastname",
          "type": "string"
        },
        {
          "internalType": "uint256",
          "name": "_age",
          "type": "uint256"
        },
        {
          "internalType": "string",
          "name": "_gender",
          "type": "string"
        },
        {
          "internalType": "string",
          "name": "_medical_id",
          "type": "string"
        },
        {
          "internalType": "string",
          "name": "_blood_type",
          "type": "string"
        },
        {
          "internalType": "string",
          "name": "_organ",
          "type": "string"
        },
        {
          "internalType": "string",
          "name": "_location",
          "type": "string"
        }
      ],
      "name": "setDonors",
      "outputs": [],
      "stateMutability": "nonpayable",
      "type": "function"
    },
    {
      "inputs": [
        {
          "internalType": "string",
          "name": "_firstname",
          "type": "string"
        },
        {
          "internalType": "string",
          "name": "_lastname",
          "type": "string"
        },
        {
          "internalType": "uint256",
          "name": "_age",
          "type": "uint256"
        },
        {
          "internalType": "string",
          "name": "_gender",
          "type": "string"
        },
        {
          "internalType": "string",
          "name": "_medical_id",
          "type": "string"
        },
        {
          "internalType": "string",
          "name": "_blood_type",
          "type": "string"
        },
        {
          "internalType": "string",
          "name": "_organ",
          "type": "string"
        },
        {
          "internalType": "string",
          "name": "_location",
          "type": "string"
        }
      ],
      "name": "setPatients",
      "outputs": [],
      "stateMutability": "nonpayable",
      "type": "function"
    },
    {
      "inputs": [
        {
          "internalType": "string",
          "name": "_medical_id",
          "type": "string"
        }
      ],
      "name": "getDonor",
      "outputs": [
        {
          "internalType": "string",
          "name": "",
          "type": "string"
        },
        {
          "internalType": "string",
          "name": "",
          "type": "string"
        },
        {
          "internalType": "uint256",
          "name": "",
          "type": "uint256"
        },
        {
          "internalType": "string",
          "name": "",
          "type": "string"
        },
        {
          "internalType": "string",
          "name": "",
          "type": "string"
        },
        {
          "internalType": "string",
          "name": "",
          "type": "string"
        },
        {
          "internalType": "string",
          "name": "",
          "type": "string"
        }
      ],
      "stateMutability": "view",
      "type": "function",
      "constant": true
    },
    {
      "inputs": [
        {
          "internalType": "string",
          "name": "_medical_id",
          "type": "string"
        }
      ],
      "name": "getPatient",
      "outputs": [
        {
          "internalType": "string",
          "name": "",
          "type": "string"
        },
        {
          "internalType": "string",
          "name": "",
          "type": "string"
        },
        {
          "internalType": "uint256",
          "name": "",
          "type": "uint256"
        },
        {
          "internalType": "string",
          "name": "",
          "type": "string"
        },
        {
          "internalType": "string",
          "name": "",
          "type": "string"
        },
        {
          "internalType": "string",
          "name": "",
          "type": "string"
        },
        {
          "internalType": "string",
          "name": "",
          "type": "string"
        }
      ],
      "stateMutability": "view",
      "type": "function",
      "constant": true
    },
    {
      "inputs": [
        {
          "internalType": "string",
          "name": "_medical_id",
          "type": "string"
        }
      ],
      "name": "validateDonor",
      "outputs": [
        {
          "internalType": "bool",
          "name": "",
          "type": "bool"
        }
      ],
      "stateMutability": "view",
      "type": "function",
      "constant": true
    },
    {
      "inputs": [
        {
          "internalType": "string",
          "name": "_medical_id",
          "type": "string"
        }
      ],
      "name": "validatePatient",
      "outputs": [
        {
          "internalType": "bool",
          "name": "",
          "type": "bool"
        }
      ],
      "stateMutability": "view",
      "type": "function",
      "constant": true
    },
    {
      "inputs": [],
      "name": "getAllDonorIDs",
      "outputs": [
        {
          "internalType": "string[]",
          "name": "",
          "type": "string[]"
        }
      ],
      "stateMutability": "view",
      "type": "function",
      "constant": true
    },
    {
      "inputs": [],
      "name": "getAllPatientIDs",
      "outputs": [
        {
          "internalType": "string[]",
          "name": "",
          "type": "string[]"
        }
      ],
      "stateMutability": "view",
      "type": "function",
      "constant": true
    },
    {
      "inputs": [],
      "name": "getCountOfDonors",
      "outputs": [
        {
          "internalType": "uint256",
          "name": "",
          "type": "uint256"
        }
      ],
      "stateMutability": "view",
      "type": "function",
      "constant": true
    },
    {
      "inputs": [],
      "name": "getCountOfPatients",
      "outputs": [
        {
          "internalType": "uint256",
          "name": "",
          "type": "uint256"
        }
      ],
      "stateMutability": "view",
      "type": "function",
      "constant": true
    }
  ],
  "bytecode": "0x608060405234801561001057600080fd5b50611a9d806100206000396000f3fe608060405234801561001057600080fd5b506004361061009e5760003560e01c80639b811209116100665780639b8112091461014d578063b38856101461017d578063d0544a8d1461019b578063e79a7a2e146101b9578063ef1215c3146101ef5761009e565b80631903e8f9146100a357806331dad732146100bf578063778b5f25146100f55780638261f9e51461011357806389d53d001461012f575b600080fd5b6100bd60048036038101906100b89190611496565b61021f565b005b6100d960048036038101906100d49190611610565b61047e565b6040516100ec97969594939291906116f0565b60405180910390f35b6100fd6108d2565b60405161010a9190611895565b60405180910390f35b61012d60048036038101906101289190611496565b6109ab565b005b610137610c0a565b60405161014491906118b7565b60405180910390f35b61016760048036038101906101629190611610565b610c17565b60405161017491906118ed565b60405180910390f35b610185610ca0565b60405161019291906118b7565b60405180910390f35b6101a3610cad565b6040516101b09190611895565b60405180910390f35b6101d360048036038101906101ce9190611610565b610d86565b6040516101e697969594939291906116f0565b60405180910390f35b61020960048036038101906102049190611610565b6111da565b60405161021691906118ed565b60405180910390f35b836040516020016102309190611944565b604051602081830303815290604052805190602001206000856040516102569190611944565b90815260200160405180910390206004016040516020016102779190611a50565b60405160208183030381529060405280519060200120141561029857600080fd5b876000856040516102a99190611944565b908152602001604051809103902060000190805190602001906102cd929190611263565b50866000856040516102df9190611944565b90815260200160405180910390206001019080519060200190610303929190611263565b50856000856040516103159190611944565b9081526020016040518091039020600201819055508460008560405161033b9190611944565b9081526020016040518091039020600301908051906020019061035f929190611263565b50836000856040516103719190611944565b90815260200160405180910390206004019080519060200190610395929190611263565b50826000856040516103a79190611944565b908152602001604051809103902060050190805190602001906103cb929190611263565b50816000856040516103dd9190611944565b90815260200160405180910390206006019080519060200190610401929190611263565b50806000856040516104139190611944565b90815260200160405180910390206007019080519060200190610437929190611263565b50600284908060018154018082558091505060019003906000526020600020016000909190919091509080519060200190610473929190611263565b505050505050505050565b60608060006060806060806000886040516104999190611944565b90815260200160405180910390206000016000896040516104ba9190611944565b908152602001604051809103902060010160008a6040516104db9190611944565b90815260200160405180910390206002015460008b6040516104fd9190611944565b908152602001604051809103902060030160008c60405161051e9190611944565b908152602001604051809103902060050160008d60405161053f9190611944565b908152602001604051809103902060060160008e6040516105609190611944565b908152602001604051809103902060070186805461057d9061198a565b80601f01602080910402602001604051908101604052809291908181526020018280546105a99061198a565b80156105f65780601f106105cb576101008083540402835291602001916105f6565b820191906000526020600020905b8154815290600101906020018083116105d957829003601f168201915b505050505096508580546106099061198a565b80601f01602080910402602001604051908101604052809291908181526020018280546106359061198a565b80156106825780601f1061065757610100808354040283529160200191610682565b820191906000526020600020905b81548152906001019060200180831161066557829003601f168201915b505050505095508380546106959061198a565b80601f01602080910402602001604051908101604052809291908181526020018280546106c19061198a565b801561070e5780601f106106e35761010080835404028352916020019161070e565b820191906000526020600020905b8154815290600101906020018083116106f157829003601f168201915b505050505093508280546107219061198a565b80601f016020809104026020016040519081016040528092919081815260200182805461074d9061198a565b801561079a5780601f1061076f5761010080835404028352916020019161079a565b820191906000526020600020905b81548152906001019060200180831161077d57829003601f168201915b505050505092508180546107ad9061198a565b80601f01602080910402602001604051908101604052809291908181526020018280546107d99061198a565b80156108265780601f106107fb57610100808354040283529160200191610826565b820191906000526020600020905b81548152906001019060200180831161080957829003601f168201915b505050505091508080546108399061198a565b80601f01602080910402602001604051908101604052809291908181526020018280546108659061198a565b80156108b25780601f10610887576101008083540402835291602001916108b2565b820191906000526020600020905b81548152906001019060200180831161089557829003601f168201915b505050505090509650965096509650965096509650919395979092949650565b60606002805480602002602001604051908101604052809291908181526020016000905b828210156109a25783829060005260206000200180546109159061198a565b80601f01602080910402602001604051908101604052809291908181526020018280546109419061198a565b801561098e5780601f106109635761010080835404028352916020019161098e565b820191906000526020600020905b81548152906001019060200180831161097157829003601f168201915b5050505050815260200190600101906108f6565b50505050905090565b836040516020016109bc9190611944565b604051602081830303815290604052805190602001206001856040516109e29190611944565b9081526020016040518091039020600401604051602001610a039190611a50565b604051602081830303815290604052805190602001201415610a2457600080fd5b87600185604051610a359190611944565b90815260200160405180910390206000019080519060200190610a59929190611263565b5086600185604051610a6b9190611944565b90815260200160405180910390206001019080519060200190610a8f929190611263565b5085600185604051610aa19190611944565b90815260200160405180910390206002018190555084600185604051610ac79190611944565b90815260200160405180910390206003019080519060200190610aeb929190611263565b5083600185604051610afd9190611944565b90815260200160405180910390206004019080519060200190610b21929190611263565b5082600185604051610b339190611944565b90815260200160405180910390206005019080519060200190610b57929190611263565b5081600185604051610b699190611944565b90815260200160405180910390206006019080519060200190610b8d929190611263565b5080600185604051610b9f9190611944565b90815260200160405180910390206007019080519060200190610bc3929190611263565b50600384908060018154018082558091505060019003906000526020600020016000909190919091509080519060200190610bff929190611263565b505050505050505050565b6000600280549050905090565b600081604051602001610c2a9190611944565b60405160208183030381529060405280519060200120600083604051610c509190611944565b9081526020016040518091039020600401604051602001610c719190611a50565b604051602081830303815290604052805190602001201415610c965760019050610c9b565b600090505b919050565b6000600380549050905090565b60606003805480602002602001604051908101604052809291908181526020016000905b82821015610d7d578382906000526020600020018054610cf09061198a565b80601f0160208091040260200160405190810160405280929190818152602001828054610d1c9061198a565b8015610d695780601f10610d3e57610100808354040283529160200191610d69565b820191906000526020600020905b815481529060010190602001808311610d4c57829003601f168201915b505050505081526020019060010190610cd1565b50505050905090565b6060806000606080606080600188604051610da19190611944565b9081526020016040518091039020600001600189604051610dc29190611944565b908152602001604051809103902060010160018a604051610de39190611944565b90815260200160405180910390206002015460018b604051610e059190611944565b908152602001604051809103902060030160018c604051610e269190611944565b908152602001604051809103902060050160018d604051610e479190611944565b908152602001604051809103902060060160018e604051610e689190611944565b9081526020016040518091039020600701868054610e859061198a565b80601f0160208091040260200160405190810160405280929190818152602001828054610eb19061198a565b8015610efe5780601f10610ed357610100808354040283529160200191610efe565b820191906000526020600020905b815481529060010190602001808311610ee157829003601f168201915b50505050509650858054610f119061198a565b80601f0160208091040260200160405190810160405280929190818152602001828054610f3d9061198a565b8015610f8a5780601f10610f5f57610100808354040283529160200191610f8a565b820191906000526020600020905b815481529060010190602001808311610f6d57829003601f168201915b50505050509550838054610f9d9061198a565b80601f0160208091040260200160405190810160405280929190818152602001828054610fc99061198a565b80156110165780601f10610feb57610100808354040283529160200191611016565b820191906000526020600020905b815481529060010190602001808311610ff957829003601f168201915b505050505093508280546110299061198a565b80601f01602080910402602001604051908101604052809291908181526020018280546110559061198a565b80156110a25780601f10611077576101008083540402835291602001916110a2565b820191906000526020600020905b81548152906001019060200180831161108557829003601f168201915b505050505092508180546110b59061198a565b80601f01602080910402602001604051908101604052809291908181526020018280546110e19061198a565b801561112e5780601f106111035761010080835404028352916020019161112e565b820191906000526020600020905b81548152906001019060200180831161111157829003601f168201915b505050505091508080546111419061198a565b80601f016020809104026020016040519081016040528092919081815260200182805461116d9061198a565b80156111ba5780601f1061118f576101008083540402835291602001916111ba565b820191906000526020600020905b81548152906001019060200180831161119d57829003601f168201915b505050505090509650965096509650965096509650919395979092949650565b6000816040516020016111ed9190611944565b604051602081830303815290604052805190602001206001836040516112139190611944565b90815260200160405180910390206004016040516020016112349190611a50565b604051602081830303815290604052805190602001201415611259576001905061125e565b600090505b919050565b82805461126f9061198a565b90600052602060002090601f01602090048101928261129157600085556112d8565b82601f106112aa57805160ff19168380011785556112d8565b828001600101855582156112d8579182015b828111156112d75782518255916020019190600101906112bc565b5b5090506112e591906112e9565b5090565b5b808211156113025760008160009055506001016112ea565b5090565b6000604051905090565b600080fd5b600080fd5b600080fd5b600080fd5b6000601f19601f8301169050919050565b7f4e487b7100000000000000000000000000000000000000000000000000000000600052604160045260246000fd5b61136d82611324565b810181811067ffffffffffffffff8211171561138c5761138b611335565b5b80604052505050565b600061139f611306565b90506113ab8282611364565b919050565b600067ffffffffffffffff8211156113cb576113ca611335565b5b6113d482611324565b9050602081019050919050565b82818337600083830152505050565b60006114036113fe846113b0565b611395565b90508281526020810184848401111561141f5761141e61131f565b5b61142a8482856113e1565b509392505050565b600082601f8301126114475761144661131a565b5b81356114578482602086016113f0565b91505092915050565b6000819050919050565b61147381611460565b811461147e57600080fd5b50565b6000813590506114908161146a565b92915050565b600080600080600080600080610100898b0312156114b7576114b6611310565b5b600089013567ffffffffffffffff8111156114d5576114d4611315565b5b6114e18b828c01611432565b985050602089013567ffffffffffffffff81111561150257611501611315565b5b61150e8b828c01611432565b975050604061151f8b828c01611481565b965050606089013567ffffffffffffffff8111156115405761153f611315565b5b61154c8b828c01611432565b955050608089013567ffffffffffffffff81111561156d5761156c611315565b5b6115798b828c01611432565b94505060a089013567ffffffffffffffff81111561159a57611599611315565b5b6115a68b828c01611432565b93505060c089013567ffffffffffffffff8111156115c7576115c6611315565b5b6115d38b828c01611432565b92505060e089013567ffffffffffffffff8111156115f4576115f3611315565b5b6116008b828c01611432565b9150509295985092959890939650565b60006020828403121561162657611625611310565b5b600082013567ffffffffffffffff81111561164457611643611315565b5b61165084828501611432565b91505092915050565b600081519050919050565b600082825260208201905092915050565b60005b83811015611693578082015181840152602081019050611678565b838111156116a2576000848401525b50505050565b60006116b382611659565b6116bd8185611664565b93506116cd818560208601611675565b6116d681611324565b840191505092915050565b6116ea81611460565b82525050565b600060e082019050818103600083015261170a818a6116a8565b9050818103602083015261171e81896116a8565b905061172d60408301886116e1565b818103606083015261173f81876116a8565b9050818103608083015261175381866116a8565b905081810360a083015261176781856116a8565b905081810360c083015261177b81846116a8565b905098975050505050505050565b600081519050919050565b600082825260208201905092915050565b6000819050602082019050919050565b600082825260208201905092915050565b60006117d182611659565b6117db81856117b5565b93506117eb818560208601611675565b6117f481611324565b840191505092915050565b600061180b83836117c6565b905092915050565b6000602082019050919050565b600061182b82611789565b6118358185611794565b935083602082028501611847856117a5565b8060005b85811015611883578484038952815161186485826117ff565b945061186f83611813565b925060208a0199505060018101905061184b565b50829750879550505050505092915050565b600060208201905081810360008301526118af8184611820565b905092915050565b60006020820190506118cc60008301846116e1565b92915050565b60008115159050919050565b6118e7816118d2565b82525050565b600060208201905061190260008301846118de565b92915050565b600081905092915050565b600061191e82611659565b6119288185611908565b9350611938818560208601611675565b80840191505092915050565b60006119508284611913565b915081905092915050565b7f4e487b7100000000000000000000000000000000000000000000000000000000600052602260045260246000fd5b600060028204905060018216806119a257607f821691505b602082108114156119b6576119b561195b565b5b50919050565b60008190508160005260206000209050919050565b600081546119de8161198a565b6119e88186611908565b94506001821660008114611a035760018114611a1457611a47565b60ff19831686528186019350611a47565b611a1d856119bc565b60005b83811015611a3f57815481890152600182019150602081019050611a20565b838801955050505b50505092915050565b6000611a5c82846119d1565b91508190509291505056fea2646970667358221220aefa23fcc2cd8b286d6cfc26dfa81b5c0c6ff5b01068f419a0c3ae235956ed8564736f6c634300080a0033",
  "immutableReferences": {},
  "source": "// SPDX-License-Identifier: MIT\npragma solidity ^0.8.10;\n\ncontract DonorContract {\n\n    struct donor\n    {\n\n        string firstname;\n        string lastname;\n        uint age;\n        string gender;\n        string medical_id;\n        string blood_type;\n        string organ;\n        string location;\n\n    }\n\n    struct patient\n    {\n\n        string firstname;\n        string lastname;\n        uint age;\n        string gender;\n        string medical_id;\n        string blood_type;\n        string organ;\n        string location;\n\n    }\n\n    mapping ( string =>donor ) donorMap;\n    mapping ( string =>patient) patientMap;\n\n    string[] DonorsArray;\n    string[] PatientArray;\n\n    function setDonors(string memory _firstname, string memory _lastname, uint _age, string memory _gender,\n                       string memory _medical_id, string memory _blood_type, string memory _organ, string memory _location)\n    public\n    {\n        require ( keccak256(abi.encodePacked((donorMap[_medical_id].medical_id))) != keccak256(abi.encodePacked(_medical_id)));\n        donorMap[_medical_id].firstname = _firstname;\n        donorMap[_medical_id].lastname = _lastname;\n        donorMap[_medical_id].age = _age;\n        donorMap[_medical_id].gender = _gender;\n        donorMap[_medical_id].medical_id = _medical_id;\n        donorMap[_medical_id].blood_type = _blood_type;\n        donorMap[_medical_id].organ = _organ;\n        donorMap[_medical_id].location = _location;\n\n        DonorsArray.push(_medical_id);\n    }\n\n    function setPatients(string memory _firstname, string memory _lastname, uint _age, string memory _gender,\n                       string memory _medical_id, string memory _blood_type, string memory _organ, string memory _location)\n    public\n    {\n        require ( keccak256(abi.encodePacked((patientMap[_medical_id].medical_id))) != keccak256(abi.encodePacked(_medical_id)) );\n        patientMap[_medical_id].firstname = _firstname;\n        patientMap[_medical_id].lastname = _lastname;\n        patientMap[_medical_id].age = _age;\n        patientMap[_medical_id].gender = _gender;\n        patientMap[_medical_id].medical_id = _medical_id;\n        patientMap[_medical_id].blood_type = _blood_type;\n        patientMap[_medical_id].organ = _organ;\n        patientMap[_medical_id].location = _location;\n\n        PatientArray.push(_medical_id);\n    }\n\n    function getDonor(string memory _medical_id) view public returns(string memory, string memory, uint, string memory, string memory, string memory, string memory)\n    {\n        return\n        (\n            donorMap[_medical_id].firstname,\n            donorMap[_medical_id].lastname,\n            donorMap[_medical_id].age,\n            donorMap[_medical_id].gender,\n            donorMap[_medical_id].blood_type,\n            donorMap[_medical_id].organ,\n            donorMap[_medical_id].location\n        );\n    }\n\n    function getPatient(string memory _medical_id) view public returns(string memory, string memory, uint, string memory, string memory, string memory, string memory)\n    {\n        return\n        (\n            patientMap[_medical_id].firstname,\n            patientMap[_medical_id].lastname,\n            patientMap[_medical_id].age,\n            patientMap[_medical_id].gender,\n            patientMap[_medical_id].blood_type,\n            patientMap[_medical_id].organ,\n            patientMap[_medical_id].location\n        );\n    }\n\n    function validateDonor(string memory _medical_id) view public returns(bool)\n    {\n\n     if (keccak256(abi.encodePacked((donorMap[_medical_id].medical_id))) == keccak256(abi.encodePacked(_medical_id)))\n     return true;\n     else return false;\n\n    }\n\n    function validatePatient(string memory _medical_id) view public returns(bool)\n    {\n\n     if (keccak256(abi.encodePacked((patientMap[_medical_id].medical_id))) == keccak256(abi.encodePacked(_medical_id)))\n     return true;\n     else return false;\n\n    }\n\n    function getAllDonorIDs() view public returns(string[] memory)\n    {\n            return DonorsArray;\n    }\n\n    function getAllPatientIDs() view public returns(string[] memory)\n    {\n            return PatientArray;\n    }\n\n    function getCountOfDonors() view public returns (uint)\n    {\n        return DonorsArray.length;\n    }\n\n    function getCountOfPatients() view public returns (uint)\n    {\n        return PatientArray.length;\n    }\n\n}",
  "sourcePath": "/home/ray/repos/organ-donation-mini-project/contracts/DonorContract.sol",
  "compiler": {
    "name": "solc",
    "version": "0.8.10+commit.fc410830.Emscripten.clang"
  },
  "schemaVersion": "3.4.4",
  "updatedAt": "2022-01-12T14:18:03.861Z",
  "networkType": "ethereum",
  "devdoc": {
    "kind": "dev",
    "methods": {},
    "version": 1
  },
  "userdoc": {
    "kind": "user",
    "methods": {},
    "version": 1
  }
}