{
  "contractName": "DonorContract",
  "abi": [
    {
      "inputs": [
        {
          "internalType": "string",
          "name": "_fullname",
          "type": "string"
        },
        {
          "internalType": "uint256",
          "name": "_age",
          "type": "uint256"
        },
        {
          "internalType": "string",
          "name": "_gender",
          "type": "string"
        },
        {
          "internalType": "string",
          "name": "_medical_id",
          "type": "string"
        },
        {
          "internalType": "string",
          "name": "_blood_type",
          "type": "string"
        },
        {
          "internalType": "string",
          "name": "_organ",
          "type": "string"
        },
        {
          "internalType": "uint256",
          "name": "_weight",
          "type": "uint256"
        },
        {
          "internalType": "uint256",
          "name": "_height",
          "type": "uint256"
        }
      ],
      "name": "setDonors",
      "outputs": [],
      "stateMutability": "nonpayable",
      "type": "function"
    },
    {
      "inputs": [
        {
          "internalType": "string",
          "name": "_fullname",
          "type": "string"
        },
        {
          "internalType": "uint256",
          "name": "_age",
          "type": "uint256"
        },
        {
          "internalType": "string",
          "name": "_gender",
          "type": "string"
        },
        {
          "internalType": "string",
          "name": "_medical_id",
          "type": "string"
        },
        {
          "internalType": "string",
          "name": "_blood_type",
          "type": "string"
        },
        {
          "internalType": "string",
          "name": "_organ",
          "type": "string"
        },
        {
          "internalType": "uint256",
          "name": "_weight",
          "type": "uint256"
        },
        {
          "internalType": "uint256",
          "name": "_height",
          "type": "uint256"
        }
      ],
      "name": "setPatients",
      "outputs": [],
      "stateMutability": "nonpayable",
      "type": "function"
    },
    {
      "inputs": [
        {
          "internalType": "string",
          "name": "_medical_id",
          "type": "string"
        }
      ],
      "name": "getDonor",
      "outputs": [
        {
          "internalType": "string",
          "name": "",
          "type": "string"
        },
        {
          "internalType": "uint256",
          "name": "",
          "type": "uint256"
        },
        {
          "internalType": "string",
          "name": "",
          "type": "string"
        },
        {
          "internalType": "string",
          "name": "",
          "type": "string"
        },
        {
          "internalType": "string",
          "name": "",
          "type": "string"
        },
        {
          "internalType": "uint256",
          "name": "",
          "type": "uint256"
        },
        {
          "internalType": "uint256",
          "name": "",
          "type": "uint256"
        }
      ],
      "stateMutability": "view",
      "type": "function",
      "constant": true
    },
    {
      "inputs": [
        {
          "internalType": "string",
          "name": "_medical_id",
          "type": "string"
        }
      ],
      "name": "getPatient",
      "outputs": [
        {
          "internalType": "string",
          "name": "",
          "type": "string"
        },
        {
          "internalType": "uint256",
          "name": "",
          "type": "uint256"
        },
        {
          "internalType": "string",
          "name": "",
          "type": "string"
        },
        {
          "internalType": "string",
          "name": "",
          "type": "string"
        },
        {
          "internalType": "string",
          "name": "",
          "type": "string"
        },
        {
          "internalType": "uint256",
          "name": "",
          "type": "uint256"
        },
        {
          "internalType": "uint256",
          "name": "",
          "type": "uint256"
        }
      ],
      "stateMutability": "view",
      "type": "function",
      "constant": true
    },
    {
      "inputs": [
        {
          "internalType": "string",
          "name": "_medical_id",
          "type": "string"
        }
      ],
      "name": "validateDonor",
      "outputs": [
        {
          "internalType": "bool",
          "name": "",
          "type": "bool"
        }
      ],
      "stateMutability": "view",
      "type": "function",
      "constant": true
    },
    {
      "inputs": [
        {
          "internalType": "string",
          "name": "_medical_id",
          "type": "string"
        }
      ],
      "name": "validatePatient",
      "outputs": [
        {
          "internalType": "bool",
          "name": "",
          "type": "bool"
        }
      ],
      "stateMutability": "view",
      "type": "function",
      "constant": true
    },
    {
      "inputs": [],
      "name": "getAllDonorIDs",
      "outputs": [
        {
          "internalType": "string[]",
          "name": "",
          "type": "string[]"
        }
      ],
      "stateMutability": "view",
      "type": "function",
      "constant": true
    },
    {
      "inputs": [],
      "name": "getAllPatientIDs",
      "outputs": [
        {
          "internalType": "string[]",
          "name": "",
          "type": "string[]"
        }
      ],
      "stateMutability": "view",
      "type": "function",
      "constant": true
    },
    {
      "inputs": [],
      "name": "getCountOfDonors",
      "outputs": [
        {
          "internalType": "uint256",
          "name": "",
          "type": "uint256"
        }
      ],
      "stateMutability": "view",
      "type": "function",
      "constant": true
    },
    {
      "inputs": [],
      "name": "getCountOfPatients",
      "outputs": [
        {
          "internalType": "uint256",
          "name": "",
          "type": "uint256"
        }
      ],
      "stateMutability": "view",
      "type": "function",
      "constant": true
    }
  ],
  "bytecode": "0x608060405234801561001057600080fd5b506117ed806100206000396000f3fe608060405234801561001057600080fd5b506004361061009e5760003560e01c80639b811209116100665780639b8112091461014d578063b38856101461017d578063d0544a8d1461019b578063e79a7a2e146101b9578063ef1215c3146101ef5761009e565b806331dad732146100a357806360e488f3146100d95780636302486b146100f5578063778b5f251461011157806389d53d001461012f575b600080fd5b6100bd60048036038101906100b891906111f6565b61021f565b6040516100d097969594939291906112e0565b60405180910390f35b6100f360048036038101906100ee9190611397565b61055e565b005b61010f600480360381019061010a9190611397565b61079d565b005b6101196109dc565b60405161012691906115e5565b60405180910390f35b610137610ab5565b6040516101449190611607565b60405180910390f35b610167600480360381019061016291906111f6565b610ac2565b604051610174919061163d565b60405180910390f35b610185610b4b565b6040516101929190611607565b60405180910390f35b6101a3610b58565b6040516101b091906115e5565b60405180910390f35b6101d360048036038101906101ce91906111f6565b610c31565b6040516101e697969594939291906112e0565b60405180910390f35b610209600480360381019061020491906111f6565b610f70565b604051610216919061163d565b60405180910390f35b60606000606080606060008060008860405161023b9190611694565b908152602001604051809103902060000160008960405161025c9190611694565b90815260200160405180910390206001015460008a60405161027e9190611694565b908152602001604051809103902060020160008b60405161029f9190611694565b908152602001604051809103902060040160008c6040516102c09190611694565b908152602001604051809103902060050160008d6040516102e19190611694565b90815260200160405180910390206006015460008e6040516103039190611694565b908152602001604051809103902060070154868054610321906116da565b80601f016020809104026020016040519081016040528092919081815260200182805461034d906116da565b801561039a5780601f1061036f5761010080835404028352916020019161039a565b820191906000526020600020905b81548152906001019060200180831161037d57829003601f168201915b505050505096508480546103ad906116da565b80601f01602080910402602001604051908101604052809291908181526020018280546103d9906116da565b80156104265780601f106103fb57610100808354040283529160200191610426565b820191906000526020600020905b81548152906001019060200180831161040957829003601f168201915b50505050509450838054610439906116da565b80601f0160208091040260200160405190810160405280929190818152602001828054610465906116da565b80156104b25780601f10610487576101008083540402835291602001916104b2565b820191906000526020600020905b81548152906001019060200180831161049557829003601f168201915b505050505093508280546104c5906116da565b80601f01602080910402602001604051908101604052809291908181526020018280546104f1906116da565b801561053e5780601f106105135761010080835404028352916020019161053e565b820191906000526020600020905b81548152906001019060200180831161052157829003601f168201915b505050505092509650965096509650965096509650919395979092949650565b8460405160200161056f9190611694565b604051602081830303815290604052805190602001206000866040516105959190611694565b90815260200160405180910390206003016040516020016105b691906117a0565b6040516020818303038152906040528051906020012014156105d757600080fd5b876001866040516105e89190611694565b9081526020016040518091039020600001908051906020019061060c929190610ff9565b508660018660405161061e9190611694565b908152602001604051809103902060010181905550856001866040516106449190611694565b90815260200160405180910390206002019080519060200190610668929190610ff9565b508460018660405161067a9190611694565b9081526020016040518091039020600301908051906020019061069e929190610ff9565b50836001866040516106b09190611694565b908152602001604051809103902060040190805190602001906106d4929190610ff9565b50826001866040516106e69190611694565b9081526020016040518091039020600501908051906020019061070a929190610ff9565b508160018660405161071c9190611694565b908152602001604051809103902060060181905550806001866040516107429190611694565b908152602001604051809103902060070181905550600385908060018154018082558091505060019003906000526020600020016000909190919091509080519060200190610792929190610ff9565b505050505050505050565b846040516020016107ae9190611694565b604051602081830303815290604052805190602001206000866040516107d49190611694565b90815260200160405180910390206003016040516020016107f591906117a0565b60405160208183030381529060405280519060200120141561081657600080fd5b876000866040516108279190611694565b9081526020016040518091039020600001908051906020019061084b929190610ff9565b508660008660405161085d9190611694565b908152602001604051809103902060010181905550856000866040516108839190611694565b908152602001604051809103902060020190805190602001906108a7929190610ff9565b50846000866040516108b99190611694565b908152602001604051809103902060030190805190602001906108dd929190610ff9565b50836000866040516108ef9190611694565b90815260200160405180910390206004019080519060200190610913929190610ff9565b50826000866040516109259190611694565b90815260200160405180910390206005019080519060200190610949929190610ff9565b508160008660405161095b9190611694565b908152602001604051809103902060060181905550806000866040516109819190611694565b9081526020016040518091039020600701819055506002859080600181540180825580915050600190039060005260206000200160009091909190915090805190602001906109d1929190610ff9565b505050505050505050565b60606002805480602002602001604051908101604052809291908181526020016000905b82821015610aac578382906000526020600020018054610a1f906116da565b80601f0160208091040260200160405190810160405280929190818152602001828054610a4b906116da565b8015610a985780601f10610a6d57610100808354040283529160200191610a98565b820191906000526020600020905b815481529060010190602001808311610a7b57829003601f168201915b505050505081526020019060010190610a00565b50505050905090565b6000600280549050905090565b600081604051602001610ad59190611694565b60405160208183030381529060405280519060200120600083604051610afb9190611694565b9081526020016040518091039020600301604051602001610b1c91906117a0565b604051602081830303815290604052805190602001201415610b415760019050610b46565b600090505b919050565b6000600380549050905090565b60606003805480602002602001604051908101604052809291908181526020016000905b82821015610c28578382906000526020600020018054610b9b906116da565b80601f0160208091040260200160405190810160405280929190818152602001828054610bc7906116da565b8015610c145780601f10610be957610100808354040283529160200191610c14565b820191906000526020600020905b815481529060010190602001808311610bf757829003601f168201915b505050505081526020019060010190610b7c565b50505050905090565b606060006060806060600080600188604051610c4d9190611694565b9081526020016040518091039020600001600189604051610c6e9190611694565b90815260200160405180910390206001015460018a604051610c909190611694565b908152602001604051809103902060020160018b604051610cb19190611694565b908152602001604051809103902060040160018c604051610cd29190611694565b908152602001604051809103902060050160018d604051610cf39190611694565b90815260200160405180910390206006015460018e604051610d159190611694565b908152602001604051809103902060070154868054610d33906116da565b80601f0160208091040260200160405190810160405280929190818152602001828054610d5f906116da565b8015610dac5780601f10610d8157610100808354040283529160200191610dac565b820191906000526020600020905b815481529060010190602001808311610d8f57829003601f168201915b50505050509650848054610dbf906116da565b80601f0160208091040260200160405190810160405280929190818152602001828054610deb906116da565b8015610e385780601f10610e0d57610100808354040283529160200191610e38565b820191906000526020600020905b815481529060010190602001808311610e1b57829003601f168201915b50505050509450838054610e4b906116da565b80601f0160208091040260200160405190810160405280929190818152602001828054610e77906116da565b8015610ec45780601f10610e9957610100808354040283529160200191610ec4565b820191906000526020600020905b815481529060010190602001808311610ea757829003601f168201915b50505050509350828054610ed7906116da565b80601f0160208091040260200160405190810160405280929190818152602001828054610f03906116da565b8015610f505780601f10610f2557610100808354040283529160200191610f50565b820191906000526020600020905b815481529060010190602001808311610f3357829003601f168201915b505050505092509650965096509650965096509650919395979092949650565b600081604051602001610f839190611694565b60405160208183030381529060405280519060200120600183604051610fa99190611694565b9081526020016040518091039020600301604051602001610fca91906117a0565b604051602081830303815290604052805190602001201415610fef5760019050610ff4565b600090505b919050565b828054611005906116da565b90600052602060002090601f016020900481019282611027576000855561106e565b82601f1061104057805160ff191683800117855561106e565b8280016001018555821561106e579182015b8281111561106d578251825591602001919060010190611052565b5b50905061107b919061107f565b5090565b5b80821115611098576000816000905550600101611080565b5090565b6000604051905090565b600080fd5b600080fd5b600080fd5b600080fd5b6000601f19601f8301169050919050565b7f4e487b7100000000000000000000000000000000000000000000000000000000600052604160045260246000fd5b611103826110ba565b810181811067ffffffffffffffff82111715611122576111216110cb565b5b80604052505050565b600061113561109c565b905061114182826110fa565b919050565b600067ffffffffffffffff821115611161576111606110cb565b5b61116a826110ba565b9050602081019050919050565b82818337600083830152505050565b600061119961119484611146565b61112b565b9050828152602081018484840111156111b5576111b46110b5565b5b6111c0848285611177565b509392505050565b600082601f8301126111dd576111dc6110b0565b5b81356111ed848260208601611186565b91505092915050565b60006020828403121561120c5761120b6110a6565b5b600082013567ffffffffffffffff81111561122a576112296110ab565b5b611236848285016111c8565b91505092915050565b600081519050919050565b600082825260208201905092915050565b60005b8381101561127957808201518184015260208101905061125e565b83811115611288576000848401525b50505050565b60006112998261123f565b6112a3818561124a565b93506112b381856020860161125b565b6112bc816110ba565b840191505092915050565b6000819050919050565b6112da816112c7565b82525050565b600060e08201905081810360008301526112fa818a61128e565b905061130960208301896112d1565b818103604083015261131b818861128e565b9050818103606083015261132f818761128e565b90508181036080830152611343818661128e565b905061135260a08301856112d1565b61135f60c08301846112d1565b98975050505050505050565b611374816112c7565b811461137f57600080fd5b50565b6000813590506113918161136b565b92915050565b600080600080600080600080610100898b0312156113b8576113b76110a6565b5b600089013567ffffffffffffffff8111156113d6576113d56110ab565b5b6113e28b828c016111c8565b98505060206113f38b828c01611382565b975050604089013567ffffffffffffffff811115611414576114136110ab565b5b6114208b828c016111c8565b965050606089013567ffffffffffffffff811115611441576114406110ab565b5b61144d8b828c016111c8565b955050608089013567ffffffffffffffff81111561146e5761146d6110ab565b5b61147a8b828c016111c8565b94505060a089013567ffffffffffffffff81111561149b5761149a6110ab565b5b6114a78b828c016111c8565b93505060c06114b88b828c01611382565b92505060e06114c98b828c01611382565b9150509295985092959890939650565b600081519050919050565b600082825260208201905092915050565b6000819050602082019050919050565b600082825260208201905092915050565b60006115218261123f565b61152b8185611505565b935061153b81856020860161125b565b611544816110ba565b840191505092915050565b600061155b8383611516565b905092915050565b6000602082019050919050565b600061157b826114d9565b61158581856114e4565b935083602082028501611597856114f5565b8060005b858110156115d357848403895281516115b4858261154f565b94506115bf83611563565b925060208a0199505060018101905061159b565b50829750879550505050505092915050565b600060208201905081810360008301526115ff8184611570565b905092915050565b600060208201905061161c60008301846112d1565b92915050565b60008115159050919050565b61163781611622565b82525050565b6000602082019050611652600083018461162e565b92915050565b600081905092915050565b600061166e8261123f565b6116788185611658565b935061168881856020860161125b565b80840191505092915050565b60006116a08284611663565b915081905092915050565b7f4e487b7100000000000000000000000000000000000000000000000000000000600052602260045260246000fd5b600060028204905060018216806116f257607f821691505b60208210811415611706576117056116ab565b5b50919050565b60008190508160005260206000209050919050565b6000815461172e816116da565b6117388186611658565b94506001821660008114611753576001811461176457611797565b60ff19831686528186019350611797565b61176d8561170c565b60005b8381101561178f57815481890152600182019150602081019050611770565b838801955050505b50505092915050565b60006117ac8284611721565b91508190509291505056fea2646970667358221220551a7c400291bdc205b733f5cf1e6f4a0027ae926293fba246b682a2770b983164736f6c634300080a0033",
  "immutableReferences": {},
  "source": "// SPDX-License-Identifier: MIT\r\npragma solidity ^0.8.10;\r\n\r\ncontract DonorContract {\r\n\r\n    struct donor\r\n    {\r\n        string fullname;\r\n        uint age;\r\n        string gender;\r\n        string medical_id;\r\n        string blood_type;\r\n        string organ;\r\n        uint weight;\r\n        uint height;\r\n    }\r\n\r\n    struct patient\r\n    {\r\n        string fullname;\r\n        uint age;\r\n        string gender;\r\n        string medical_id;\r\n        string blood_type;\r\n        string organ;\r\n        uint weight;\r\n        uint height;\r\n    }\r\n\r\n    mapping ( string =>donor ) donorMap;\r\n    mapping ( string =>patient) patientMap;\r\n\r\n    string[] DonorsArray;\r\n    string[] PatientsArray;\r\n\r\n    function setDonors(string memory _fullname, uint _age, string memory _gender, string memory _medical_id,\r\n                       string memory _blood_type, string memory _organ, uint _weight, uint _height)\r\n    public\r\n    {\r\n        require ( keccak256(abi.encodePacked((donorMap[_medical_id].medical_id))) != keccak256(abi.encodePacked(_medical_id)));\r\n        donorMap[_medical_id].fullname = _fullname;\r\n        donorMap[_medical_id].age = _age;\r\n        donorMap[_medical_id].gender = _gender;\r\n        donorMap[_medical_id].medical_id = _medical_id;\r\n        donorMap[_medical_id].blood_type = _blood_type;\r\n        donorMap[_medical_id].organ = _organ;\r\n        donorMap[_medical_id].weight = _weight;\r\n        donorMap[_medical_id].height = _height;\r\n\r\n        DonorsArray.push(_medical_id);\r\n    }\r\n\r\n    function setPatients(string memory _fullname, uint _age, string memory _gender, string memory _medical_id,\r\n                       string memory _blood_type, string memory _organ, uint _weight, uint _height)\r\n    public\r\n    {\r\n        require ( keccak256(abi.encodePacked((donorMap[_medical_id].medical_id))) != keccak256(abi.encodePacked(_medical_id)));\r\n        patientMap[_medical_id].fullname = _fullname;\r\n        patientMap[_medical_id].age = _age;\r\n        patientMap[_medical_id].gender = _gender;\r\n        patientMap[_medical_id].medical_id = _medical_id;\r\n        patientMap[_medical_id].blood_type = _blood_type;\r\n        patientMap[_medical_id].organ = _organ;\r\n        patientMap[_medical_id].weight = _weight;\r\n        patientMap[_medical_id].height = _height;\r\n\r\n        PatientsArray.push(_medical_id);\r\n    }\r\n\r\n    function getDonor(string memory _medical_id) view public returns(string memory, uint, string memory, string memory, string memory, uint, uint)\r\n    {\r\n        return\r\n        (\r\n            donorMap[_medical_id].fullname,\r\n            donorMap[_medical_id].age,\r\n            donorMap[_medical_id].gender,\r\n            donorMap[_medical_id].blood_type,\r\n            donorMap[_medical_id].organ,\r\n            donorMap[_medical_id].weight,\r\n            donorMap[_medical_id].height\r\n        );\r\n    }\r\n\r\n    function getPatient(string memory _medical_id) view public returns(string memory, uint, string memory, string memory, string memory, uint, uint)\r\n    {\r\n        return\r\n        (\r\n            patientMap[_medical_id].fullname,\r\n            patientMap[_medical_id].age,\r\n            patientMap[_medical_id].gender,\r\n            patientMap[_medical_id].blood_type,\r\n            patientMap[_medical_id].organ,\r\n            patientMap[_medical_id].weight,\r\n            patientMap[_medical_id].height\r\n        );\r\n    }\r\n\r\n    function validateDonor(string memory _medical_id) view public returns(bool)\r\n    {\r\n\r\n     if (keccak256(abi.encodePacked((donorMap[_medical_id].medical_id))) == keccak256(abi.encodePacked(_medical_id)))\r\n     return true;\r\n     else return false;\r\n\r\n    }\r\n\r\n    function validatePatient(string memory _medical_id) view public returns(bool)\r\n    {\r\n\r\n     if (keccak256(abi.encodePacked((patientMap[_medical_id].medical_id))) == keccak256(abi.encodePacked(_medical_id)))\r\n     return true;\r\n     else return false;\r\n\r\n    }\r\n\r\n    function getAllDonorIDs() view public returns(string[] memory)\r\n    {\r\n            return DonorsArray;\r\n    }\r\n\r\n    function getAllPatientIDs() view public returns(string[] memory)\r\n    {\r\n            return PatientsArray;\r\n    }\r\n\r\n    function getCountOfDonors() view public returns (uint)\r\n    {\r\n        return DonorsArray.length;\r\n    }\r\n\r\n    function getCountOfPatients() view public returns (uint)\r\n    {\r\n        return PatientsArray.length;\r\n    }\r\n\r\n}",
  "sourcePath": "D:\\github\\organ-donation-mini-project\\contracts\\DonorContract.sol",
  "compiler": {
    "name": "solc",
    "version": "0.8.10+commit.fc410830.Emscripten.clang"
  },
  "schemaVersion": "3.4.4",
  "updatedAt": "2022-01-13T18:15:02.359Z",
  "networkType": "ethereum",
  "devdoc": {
    "kind": "dev",
    "methods": {},
    "version": 1
  },
  "userdoc": {
    "kind": "user",
    "methods": {},
    "version": 1
  }
}